:020000040800F2
:10000000D05D00202903000819430008F1330008DF
:100010001543000895060008294E0008000000005E
:10002000000000000000000000000000690200085D
:100030007B0E000800000000C5020008F145000822
:100040004303000843030008430300084303000878
:100050004303000843030008430300084303000868
:100060004303000843030008890E00084303000807
:10007000510D000843030008610D00084303000808
:10008000430300084303000843030008BD090008B8
:10009000AD0900084303000843030008930E00085D
:1000A00043030008D5460008430300084303000843
:1000B0004303000843030008430300084303000808
:1000C00043030008430300084303000843030008F8
:1000D0004303000843030008094E0008194E0008B6
:1000E0007D0E000843030008430300084303000893
:1000F00043030008430300084303000843030008C8
:1001000043030008430300084303000843030008B7
:10011000430300084303000843030008E5460008C2
:100120004303000843030008430300084303000897
:10013000430300084303000843030008890A00083A
:10014000790A00084303000843030008430300083A
:100150004303000843030008430300084303000867
:100160004303000843030008430300084303000857
:100170004303000843030008430300080000000095
:10018000430300084303000800F002F800F05CF8A5
:100190000AA090E8000C82448344AAF10107DA45E2
:1001A00001D100F051F8AFF2090EBAE80F0013F0D8
:1001B000010F18BFFB1A43F001031847909300008A
:1001C000B09300000A444FF0000C10F8013B13F00C
:1001D000070408BF10F8014B1D1108BF10F8015BA0
:1001E000641E05D010F8016B641E01F8016BF9D193
:1001F00013F0080F1EBF10F8014BAD1C0C1B09D1EA
:100200006D1E58BF01F801CBFAD505E014F8016B5B
:1002100001F8016B6D1EF9D59142D6D370470000ED
:100220000023002400250026103A28BF78C1FBD8FF
:10023000520728BF30C148BF0B6070471FB509F097
:1002400057F91FBD10B510BD00F0E4F91146FFF7D6
:10025000F5FF05F03FFD00F002FA03B4FFF7F2FFEF
:1002600003BC00F005FA00002C4B19680868B0E8E0
:10027000F04F80F30988BFF36F8F4FF0000080F3D9
:10028000118870470000000008480068006880F38B
:1002900008884FF0000080F3148862B661B6BFF39F
:1002A0004F8FBFF36F8F00DF00BF00BF08ED00E08E
:1002B000DFF80C00016841F470010160704700BF75
:1002C00088ED00E0EFF30980BFF36F8F134B1A68DE
:1002D0001EF0100F08BF20ED108A20E9F04F1060CB
:1002E00009B44FF0500080F31188BFF34F8FBFF374
:1002F0006F8F07F055FC4FF0000080F3118809BCA8
:1003000019680868B0E8F04F1EF0100F08BFB0EC95
:10031000108A80F30988BFF36F8F704710010020A7
:10032000EFF30580704700000948804709480047FF
:10033000FEE7FEE7FEE7FEE7FEE7FEE7FEE7FEE795
:10034000FEE7FEE704480549054A064B70470000F2
:10035000C146000889010008D0570020D05D002068
:10036000D0590020D059002053EA020C00F06980D7
:100370002DE9F04B4FF00006002B1FBFB3FA83F5B9
:1003800003FA05F424FA05F65E4012BF1643B2FAEA
:1003900082F502FA05F4C5F120051EBF22FA05FC1C
:1003A00044EA0C04203556EA044C4FEA144418BFC2
:1003B000641C4FF000084FF00009904271EB030CF1
:1003C00039D3002919BFB1FA81F701FA07F6B0FA5B
:1003D00080F700FA07F6C7F120071EBF20FA07FCD6
:1003E00046EA0C062037B6FBF4FCA7EB0507103FE6
:1003F00007F01F0BCBF120060CFA0BFB2CFA06F6CC
:1004000044BFB3460026202FA4BF5E464FF0000B2A
:100410005BEA060C08BF4FF0010B19EB0B09ABFBB5
:10042000027C48EB0608C01B06FB02CC0BFB03CC8E
:1004300071EB0C01C1E70B46024641464846BDE858
:10044000F08B13B54FF000004FF00001AFF30080C8
:10045000BDE81C407047032A40F2308010F0030CC6
:1004600000F0158011F8013BBCF1020F624498BF07
:1004700011F801CB00F8013B38BF11F8013BA2F1A4
:10048000040298BF00F801CB38BF00F8013B11F01F
:10049000030300F06280083AC0F0088051F8043B82
:1004A000083A51F804CBA0E80810F5E7121D5CBF2C
:1004B00051F8043B40F8043BAFF30080D20724BF5F
:1004C00011F8013B11F801CB48BF11F8012B24BFF3
:1004D00000F8013B00F801CB48BF00F8012B704742
:1004E00002F0FF0343EA032242EA024200F069B845
:1004F0004FF0000200B5134694469646203922BFBD
:10050000A0E80C50A0E80C50B1F12001BFF4F7AF07
:10051000090728BFA0E80C5048BF0CC05DF804EBE9
:10052000890028BF40F8042B08BF704748BF20F857
:10053000022B11F0804F18BF00F8012B7047704755
:100540007047704710B500F05DF8006810BD10B539
:10055000044600F057F8046010BD10B5203AC0F012
:100560000B80B1E81850203AA0E81850B1E81850B4
:10057000A0E81850BFF4F5AF5FEA027C24BFB1E8F1
:100580001850A0E8185044BF18C918C0BDE8104062
:100590005FEA827C24BF51F8043B40F8043B08BF6B
:1005A0007047D20728BF31F8023B48BF11F8012B32
:1005B00028BF20F8023B48BF00F8012B70474FF0DE
:1005C00000020429C0F0128010F0030C3FF492AF37
:1005D000CCF1040CBCF1020F18BF00F8012BA8BF2E
:1005E00020F8022BA1EB0C01FFF784BF5FEAC17C6E
:1005F00024BF00F8012B00F8012B48BF00F8012BA5
:1006000070470000004870476C5700200048704752
:100610006C5700207546FFF7F9FFAE4605006946A6
:10062000534620F00700854618B020B5FFF78AFE34
:10063000BDE820404FF000064FF000074FF00008E3
:100640004FF0000B21F00701AC46ACE8C009ACE864
:10065000C009ACE8C009ACE8C0098D46704710B5C8
:100660000446AFF300802046BDE81040FFF7F5BD1B
:1006700001491820ABBEFEE72600020070470000CB
:10068000034880ED0A0B80ED061B80ED022B7047BE
:10069000A000002000BFFEE700B5B9480078AA28F6
:1006A0007DD1B748407CDD28FAD10F21B448801CA9
:1006B00000F048FAB3490870B14840780978884298
:1006C000EED1AF488178C07841EA002000B2AE494F
:1006D0000880AB480179407941EA002000B2AB497B
:1006E0000880A7488179C07941EA002000B2A84972
:1006F0000880A348017A407A41EA002000B2A54967
:1007000008809F48817AC07A41EA002000B2A2495D
:1007100008809B48017B407B41EA002000B29F4952
:1007200008809948008800F4004028B19648B0F944
:1007300000009B49084302E09348B0F9000000B272
:10074000914908809148008800F4004028B18F4802
:10075000B0F900009249084302E08C48B0F900006B
:1007600000B28A4908808A48008800F4004028B115
:100770008748B0F900008A49084302E08448B0F98C
:10078000000000B2824908808248008800F40040DE
:1007900030B18048B0F900008149084303E0EDE042
:1007A0007C48B0F9000000B27A4908807A48008895
:1007B00000F4004028B17848B0F9000078490843B7
:1007C00002E07548B0F9000000B273490880734830
:1007D000008800F4004028B17048B0F9000070496A
:1007E000084302E06D48B0F9000000B26B49088090
:1007F0006C48007800F0010020B96148807B00F06F
:10080000010000B900BF6748007800F0020028B975
:100810005B48807B00F00200022800D000BF6148E6
:10082000007800F0040028B95548807B00F00400EF
:10083000042800D000BF5B48007800F0080028B909
:100840004F48807B00F00800082800D000BF5548C2
:10085000007800F0100028B94948807B00F01000B3
:10086000102800D000BF4F48007800F0200028B9C1
:100870004348807B00F02000202800D000BF49487A
:10088000007800F0400028B93D48807B00F040002F
:10089000402800D000BF4348007800F0800028B90D
:1008A0003748807B00F08000802800D000BF3E48A1
:1008B000007800F0010020B93148C07B00F0010051
:1008C00000B900BF3848007800F0020028B92C4871
:1008D000C07B00F00200022800D000BF3248007840
:1008E00000F0040028B92648C07B00F0040004286A
:1008F00000D000BF2C48007800F0080028B920483C
:10090000C07B00F00800082800D000BF264800780F
:1009100000F0100028B91A48C07B00F01000102821
:1009200000D000BF2048007800F0200028B914480B
:10093000C07B00F02000202800D000BF1A480078BB
:1009400000F0400028B90E48C07B00F0400040286D
:1009500000D000BF1448007800F0800028B9084893
:10096000C07B00F08000802800D000BF0448807B5E
:100970000C4908700248C07B0B49087000BD00009C
:10098000500300203E0000203000002032000020F4
:100990003400002036000020380000203A000020FB
:1009A0000000FFFF3C0000203D00002010B5024881
:1009B00000F08CFC10BD00006403002010B502485C
:1009C00000F084FC10BD0000640300202DE9F84F06
:1009D00004460D4616461F46DDE90CABDDE90A89E3
:1009E0004FF400701F49086000208860C86008202C
:1009F0000861200A1C4908704C70280A8870CD7064
:100A0000300A08714E71380A8871CF716B460A46F8
:100A10001449164800F05EFA40F2FF1014490860CD
:100A200000208860C860082008614FEA182011493A
:100A3000087081F801804FEA1920887081F80390CE
:100A40004FEA1A20087181F805A04FEA1B2088712F
:100A500081F807B06B460A460549044800F03AFAA7
:100A6000BDE8F88FD00200200000002064030020C1
:100A7000000300201000002010B5024800F026FC02
:100A800010BD00008C03002010B5024800F01EFCD1
:100A900010BD00008C0300202DE9F84F04460D46E0
:100AA00016461F46DDE90CABDDE90A894FF40070FC
:100AB0001F49086000208860C86008200861200A7B
:100AC0001C4908704C70280A8870CD70300A087173
:100AD0004E71380A8871CF716B460A461449164820
:100AE00000F0F8F940F2FF10144908600020886017
:100AF000C860082008614FEA18201149087081F881
:100B000001804FEA1920887081F803904FEA1A207B
:100B1000087181F805A04FEA1B20887181F807B0A1
:100B20006B460A460549044800F0D4F9BDE8F88F41
:100B3000E8020020080000208C0300201803002099
:100B40001800002010B502460123002002E0145CCA
:100B50006340401C8842FADB184610BD70B52DED8D
:100B6000028BB0EE408AF0EE608A05460C46207893
:100B700020B9012020700220607075E060780128A3
:100B800002D002284AD124E09FED390B53EC102B00
:100B900051EC180B08F07AF906D8032060709FED2D
:100BA000360B85ED000B13E09FED350B53EC102B4E
:100BB00051EC180B08F06AF90AD29FED2D0B53EC9B
:100BC000102B51EC180B08F09BFA01D20220607038
:100BD00049E09FED2B0B53EC102B51EC180B08F058
:100BE0008FFA06D8012060709FED270B85ED000B72
:100BF00013E09FED1F0B53EC102B51EC180B08F07A
:100C000045F906D8032060709FED1B0B85ED000BA6
:100C100003E09FED1F0B85ED000B24E09FED180B0B
:100C200053EC102B51EC180B08F06AFA06D801208F
:100C300060709FED150B85ED000B13E09FED100B21
:100C400053EC102B51EC180B08F020F90AD29FED51
:100C5000080B53EC102B51EC180B08F051FA01D291
:100C60000220607000BF00BFBDEC028B70BD0000B1
:100C7000000000000088B3C0000000000000F0BFCA
:100C8000000000000088B340000000000000F03FBA
:100C900000000000000000009FED020B80ED000B43
:100CA00070470000000000000000000070B52DED4E
:100CB000048BB0EE408AF0EE608AB0EE419AF0EE1E
:100CC000619A05460C46207818B9012020706070A2
:100CD0002BE06078012815D1154890ED001BB0EE8F
:100CE000410AF0EE610A53EC102B51EC180B08F09E
:100CF00007FA02D80220607017E09FED0E0B85ED19
:100D0000000B12E00A4890ED001BB0EE410AF0EE35
:100D1000610A53EC102B51EC180B08F0B7F802D80D
:100D20000120607001E085ED009BBDEC048B70BD7F
:100D3000A000002000000000000000009FED020B5A
:100D400080ED000B70470000000000000000000074
:100D500010B5024800F0E4FE10BD00009004002031
:100D600010B5024800F0DCFE10BD0000F0040020C9
:100D70000146087810381823B0FBF3F20848805C6D
:100D8000C865032A05D908686FF30900001D886546
:100D900003E008686FF309008865886D70470000FC
:100DA00020950008014600208A6A8B69CBB932B1D0
:100DB000012A0DD0022A03D0032A10D10EE000BF71
:100DC000CB6A03F08073B3F1807F00D1012007E08C
:100DD000CB6AB3F1C07F00D1012001E000E000BF89
:100DE00034E08B69B3F5005F1AD132B1012A07D024
:100DF000022A03D0032A11D10AE000BF01200EE02D
:100E0000CB6A03F08073B3F1807F00D1012006E04C
:100E1000CB6AB3F1C07F00D1012000E000BF15E034
:100E200032B1012A05D0022A04D0032A0CD103E0F2
:100E300000BF00BF012008E0CB6A03F08073B3F16C
:100E4000807F00D1012000E000BF00BF704730B5B7
:100E50000468246824F4802405682C6004686360B6
:100E60008468402C04D10468A2600468E16003E057
:100E70000468A1600468E26030BD704710B54FF4AB
:100E8000805001F02DF810BD10B5102001F028F8A9
:100E900010BD10B5402001F023F84FF4807001F030
:100EA0001FF810BD72B600BFFEE710B5024692F8FB
:100EB0002030012B01D0022B06D110684069084375
:100EC00014686061002010BD506A40F480205062B8
:100ED0000120F8E7F0B504460D461E4694F8207050
:100EE00020688368A86800B900E000BF012F01D026
:100EF000022F7CD103F0806030B903F0006018B994
:100F000003F08050002873D0C3F30161022905D992
:100F1000606A40F4000060620120F0BD012088405A
:100F20003060A86860B9B5F800C0E86840EA4C5C79
:100F3000206800F5C07000EB0110C0F800C00FE0A1
:100F4000D5E901C040EACC00D5F80CC040EA0C005D
:100F5000D4F800C00CF5C07C0CEB011CCCF80000F0
:100F6000D5F810C0206800F5C07000EB0110C0F883
:100F700004C0287D01280ED1206800F5C07000EB68
:100F80000110406840F4807C206800F5C07000EBE0
:100F90000110C0F804C0D079000692F806C040EAFB
:100FA0000C4092F805C040EA0C2C10794CEA000C79
:100FB000206800F5C07000EB0110C0F80CC0D078BC
:100FC000000692F802C040EA0C4092F801C040EAE4
:100FD0000C2092F800C040EA0C00D4F800C00CF5D8
:100FE000C07C0CEB011CCCF80800206801E016E086
:100FF0000FE000F5C07000EB0110006840F0010C3C
:10100000206800F5C07000EB0110C0F800C000209F
:1010100083E7606A40F40010606201207DE7606A47
:1010200040F480206062012077E70000F0B50446BC
:101030000A46216894F82050012D01D0022D7ED15E
:10104000424901F50071086840F001000860086835
:1010500020F47C5008600868566A40EA0620086060
:10106000107D00F01F06012000FA06F3C8699843BE
:10107000C861A1F50071D069C8B9D1F80C029843D4
:10108000C1F80C02908880B2968940EA064601F5C4
:101090001070576940F83760108880B2168940EAAE
:1010A000064601F51070576900EBC7004660D0692D
:1010B000012819D1D1F80C021843C1F80C0290880C
:1010C00080B2168840EA064601F51070576940F86C
:1010D0003760908980B2168940EA064601F51070A3
:1010E000576900EBC7004660906928B9D1F804023F
:1010F0009843C1F8040204E0D1F804021843C1F88F
:101100000402106928B9D1F814029843C1F81402F6
:1011100004E0D1F814021843C1F81402106A01283F
:1011200004D1D1F81C021843C1F81C02D1F8000206
:1011300020F00100C1F800020020F0BDFFE7606A66
:1011400040F4802060620120F7E700000064004066
:10115000704770B5044694F82050012D01D0022D3F
:101160007DD151B92068C06800F0030080B9606A81
:1011700040F400106062012070BD2068006900F03A
:10118000030028B9606A40F4001060620120F3E7B0
:10119000206800F5D87000EB0110006800F0040032
:1011A0009060906840B9206800F5D87000EB01109D
:1011B0000068400D106007E0206800F5D87000EB73
:1011C00001100068C0085060206800F5D87000EB7E
:1011D0000110006800F00200D060206800F5D870AF
:1011E00000EB0110406800F00F001061206800F56E
:1011F000D87000EB0110406800F47F40000A906155
:10120000206800F5D87000EB01104068000C5061B8
:10121000206800F5D87000EB011080681870206815
:1012200000F5D87000EB0110806800F47F40000AE0
:101230005870206800F5D87000EB0110806800F449
:101240007F00000C9870206800F5D87000EB01104A
:101250008068000ED870206800F5D87000E02FE09C
:1012600000EB0110C0681871206800F5D87000EB21
:101270000110C06800F47F40000A5871206800F532
:10128000D87000EB0110C06800F47F00000C98716A
:10129000206800F5D87000EB0110C068000ED8710E
:1012A00031B92068C06840F020002668F06005E091
:1012B0002068006940F020002668306100205BE76C
:1012C000606A40F480206062012055E72DE9F05FFC
:1012D00004460025206846692068D0F804902068FC
:1012E00087682068D0F80CA02068D0F810B020687B
:1012F000D0F8188006F00100002855D007F0010052
:10130000C0B101202168886007F0020018B12046B2
:1013100000F095FB0EE007F0040010B145F4006505
:1013200008E007F0080010B145F4805502E02046BF
:1013300000F084FB07F48070C8B14FF4807021681E
:10134000886007F4007018B1204600F07AFB0EE0C8
:1013500007F4806010B145F4005508E007F4006020
:1013600010B145F4804502E0204600F069FB07F427
:101370008030C8B14FF480302168886007F40030B5
:1013800018B1204600F05FFB0EE007F4802010B19A
:1013900045F4004508E007F4002010B145F480351D
:1013A00002E0204600F04EFB06F0080038B10AF0DB
:1013B000100020B145F4007510202168C86006F0C7
:1013C000040040B10AF0080028B108202168C86074
:1013D000204600F01DFA06F0020038B12068C0680F
:1013E00000F0030010B1204600F014FA06F04000AF
:1013F00038B10BF0100020B145F480651020216851
:10140000086106F0200040B10BF0080028B1082068
:1014100021680861204600F0DFFA06F0100038B1BC
:101420002068006900F0030010B1204600F0D5FAF2
:1014300006F4003040B109F0100028B110202168F6
:101440004860204600F0CAFA06F4803040B109F046
:10145000080028B1082021684860204600F0F4FA0E
:1014600006F4004088B309F0040078B306F48070F5
:1014700020B108F0010008B145F0010506F4007044
:1014800020B108F0020008B145F0020506F48060C2
:1014900020B108F0040008B145F0040506F400602E
:1014A000A0B108F0700088B108F07000402817D093
:1014B00006DC10280BD020280CD0302819D10CE0E5
:1014C000502810D0602814D110E01DE019E045F03C
:1014D00008050FE045F010050CE045F0200509E097
:1014E00045F0400506E045F0800503E045F48075D1
:1014F00000E000BF00BF2068806920F07000216814
:1015000088610420216848602DB1606A28436062C8
:101510002046FFF71DFEBDE8F09F70B504460CB9EC
:10152000012070BD94F8200010B9204600F0B0F8FA
:101530002068006840F001002168086000F0D8FDD4
:1015400005460DE000F0D4FD401B0A2808D9606A6A
:1015500040F400306062052084F820000120E0E7BC
:101560002068406800F001000028EBD02068006887
:1015700020F002002168086000F0BAFD05460DE089
:1015800000F0B6FD401B0A2808D9606A40F400301C
:101590006062052084F820000120C2E720684068CE
:1015A00000F002000028EBD1207E012806D120683F
:1015B000006840F080002168086005E0206800684D
:1015C00020F0800021680860607E012806D1206834
:1015D000006840F040002168086005E0206800686D
:1015E00020F0400021680860A07E012806D1206814
:1015F000006840F020002168086005E0206800686D
:1016000020F0200021680860E07E012806D12068D3
:10161000006820F010002168086005E0206800687C
:1016200040F0100021680860207F012806D1206862
:10163000006840F008002168086005E02068006844
:1016400020F0080021680860607F012806D120682A
:10165000006840F004002168086005E02068006828
:1016600020F0040021680860D4E9020108432169E0
:101670000843616908436168491E08432168C861DD
:1016800000206062012084F82000002049E700006B
:1016900010B586B00446142101A8FEF729FF56496B
:1016A0002068884249D155480068401C5349086069
:1016B0000846006801280FD100BF00200090504864
:1016C000006840F000704E4908600846006800F06D
:1016D0000070009000BF00BF00BF0020009048488D
:1016E0001038006840F00800454910390860084685
:1016F000006800F00800009000BF00BF03200190C8
:1017000002200290002003900320049009200590FD
:1017100001A93C4800F0F2FB00220521132000F053
:10172000E1FD132000F0CEFD00220521142000F081
:10173000D9FD142000F0C6FD5CE0334920688842E2
:1017400058D100BF002000902D48006840F0806014
:101750002B4908600846006800F08060009000BFD8
:1017600000BF26480068401C2449086008460068FD
:1017700001280FD100BF002000902148006840F0F0
:1017800000701F4908600846006800F00070009073
:1017900000BF00BF00BF002000901948103800684B
:1017A00040F002001649103908600846006800F051
:1017B0000200009000BF00BF602001900220029054
:1017C00000200390032004900920059001A90F48F0
:1017D00000F094FB002205213F2000F083FD3F2014
:1017E00000F070FD00220521402000F07BFD40202C
:1017F00000F068FD06B010BD006400407C000020D1
:1018000040380240000C02400068004000040240E2
:101810007047000010B58AB004466948844264D11C
:1018200001AB03AA00212046FFF793FC0398A0F226
:101830000120082852D2DFE800F004050607080955
:101840000A0B00BF00BF00BF00BF00BF00BF00BF4A
:101850000398401E5B4908705B48097800EB011053
:10186000008800B25849574A127801EB02110881EA
:101870009DF805009DF8041040EA01205249514AA4
:10188000127801EB021108809DF807009DF8061000
:1018900040EA012000B24C494A4A127801EB021199
:1018A00048809DF809009DF8081040EA012000B228
:1018B0004549444A127801EB021188809DF80A10CC
:1018C0004148404A127800EB021081713E493D4A7E
:1018D000127801EB021003F07FFC00E000BF00BFB4
:1018E00002213748FFF7E1FA00BF3848844264D14B
:1018F00001AB03AA00212046FFF72BFC0398A0F2BE
:101900000120082852D2DFE800F004050607080984
:101910000A0B00BF00BF00BF00BF00BF00BF00BF79
:101920000398401E2A4908702A48097800EB0110E4
:10193000008801B22748264A127800EB0210018184
:101940009DF805009DF8041040EA01212148204A35
:10195000127800EB021001809DF807009DF8061038
:1019600040EA012000B21B49194A127801EB02112A
:1019700048809DF809009DF8081040EA012001B256
:101980001448134A127800EB021081809DF80A1067
:1019900010480F4A127800EB021081710D490C4A71
:1019A000127801EB021003F017FC00E000BF00BF4B
:1019B00002210648FFF779FA00BF0AB010BD000007
:1019C0006403002020000020900100208C030020F0
:1019D000210000201002002070477047704770B54A
:1019E000044694F82000012822D1022084F8200027
:1019F0002068006820F001002168086000F078FB92
:101A000005460DE000F074FB401B0A2808D9606A07
:101A100040F400306062052084F82000012070BD91
:101A20002068406800F001000028EBD16062F6E712
:101A3000606A40F4002060620120F0E77047704760
:101A40007047704770477047704770B50446A56D82
:101A500000F04EFB064694F83500022808D080209E
:101A6000606500BF002084F8340000BF012070BD15
:101A70002068006820F0160021680860206840692E
:101A800020F0800021684861206C08B9A06C28B162
:101A90002068006820F0080021680860206800685D
:101AA00020F001002168086010E000F021FB801B9D
:101AB00005280BD920206065032084F8350000BF7D
:101AC000002084F8340000BF0320D0E720680068BD
:101AD00000F001000028E8D194F85C103F20884015
:101AE000A860012084F8350000BF002084F834008D
:101AF00000BF00BFBBE7014691F83500022803D0C4
:101B00008020486501207047052081F8350008686D
:101B1000006820F001000A6810600020F3E7000070
:101B2000F8B50446002000908C4800684FF4165128
:101B3000B0FBF1F7A56D2E6894F85C100820884082
:101B4000304098B12068006800F0040070B120684F
:101B5000006820F004002168086094F85C100820F8
:101B60008840A860606D40F00100606594F85C10EA
:101B700001208840304068B12068406900F0800052
:101B800040B194F85C1001208840A860606D40F07E
:101B90000200606594F85C1004208840304068B111
:101BA0002068006800F0020040B194F85C10042046
:101BB0008840A860606D40F00400606594F85C1097
:101BC00010208840304078B32068006800F008009A
:101BD00050B394F85C1010208840A860206800681A
:101BE00000F4802080B12068006800F4002028B94B
:101BF000206CC8B12046216C884715E0A06C98B1D4
:101C00002046A16C88470FE02068006800F48070CF
:101C100028B92068006820F0080021680860206C5E
:101C200010B12046216C884794F85C102020884031
:101C30003040002865D02068006800F010000028BF
:101C40005FD094F85C1020208840A86094F835009C
:101C5000052828D12068006820F016002168086057
:101C60002068406920F0800021684861206C08B934
:101C7000A06C28B12068006820F008002168086086
:101C800094F85C103F208840A860012084F835005B
:101C900000BF002084F8340000BF206D10B1204642
:101CA000216D8847F8BD2068006800F4802080B16D
:101CB0002068006800F4002028B9606C10B120464C
:101CC000616C88471DE0E06BD8B12046E16B884726
:101CD00017E02068006800F4807068B92068006828
:101CE00020F0100021680860012084F8350000BF52
:101CF000002084F8340000BFE06B10B12046E16B97
:101D00008847606D38B3606D00F00100F0B10520C8
:101D100084F835002068006820F001002168086020
:101D200000BF0098401C0090B84200D905E0206830
:101D3000006800F001000028F3D100BF012084F802
:101D4000350000BF002084F8340000BFE06C10B103
:101D50002046E16C884700BFA4E700008C0000200B
:101D60002DE9F0410446002500F0C2F9074614B9F8
:101D70000120BDE8F081606A00B100BF022084F854
:101D8000350000BF002084F8340000BF20680068E0
:101D900020F00100216808600AE000F0A9F9C01BEA
:101DA000052805D920206065032084F83500E0E788
:101DB0002068006800F001000028EED12068056866
:101DC00021480540D4E901010843E168084321693D
:101DD000084361690843A1690843E1690843216A2E
:101DE00008430543606A042803D1D4E90B01084382
:101DF0000543206805602068456925F00705606A8D
:101E00000543606A04280DD1A06A0543E06A48B121
:101E10002046FEF7C7FF28B140206065012084F806
:101E20003500A6E7206845612046FEF7A1FF06467B
:101E300094F85C103F208840B0600020606501206D
:101E400084F83500002094E73F8010F02DE9F0473A
:101E500004460D4616461F464FF00008D4F8589029
:101E600000BF94F83400012802D10220BDE8F087B9
:101E7000012084F8340000BF94F83500012825D1F2
:101E8000022084F83500002060653B463246294632
:101E90002046FEF7DCFF94F85C103F208840C9F82C
:101EA00008002068006840F0160021680860206C77
:101EB00028B12068006840F00800216808602068A8
:101EC000006840F001002168086006E000BF0020C3
:101ED00084F8340000BF4FF002084046C6E7704760
:101EE00010B5044604480068204020B10248046050
:101EF0002046FFF7F4FF10BD143C0140F8B5024640
:101F00000B460025002400200021D6E0012606FA19
:101F100001F51E6806EA0504AC4274D11E7906F08C
:101F20000306012E04D01E7906F00306022E13D1FB
:101F300090684F000326BE40B0434F00DE68BE40AD
:101F400030439060506801268E40B0431E79C6F33E
:101F500000168E40304350601E7906F00306032EB3
:101F600009D0D0684F000326BE40B0434F009E68A2
:101F7000BE403043D0601E7906F00306022E13D116
:101F8000CF0802F1200656F827004E07F70E0F265D
:101F9000BE40B0434F07FF0E1E69BE403043CF081E
:101FA00002F1200646F8270010684F000326BE40C5
:101FB000B0431E7906F003064F00BE403043106068
:101FC0005E6806F44036002E76D000BF00260096EC
:101FD0003C4E366846F480463A4F3E603E46366890
:101FE00006F48046009600BF00BF374E8F0856F8B3
:101FF00027008E07370F0F26BE40B043334EB24244
:1020000002D1002624E057E0314EB24201D1012630
:102010001EE0304EB24201D1022619E02E4EB242ED
:1020200001D1032614E02D4EB24201D104260FE067
:102030002B4EB24201D105260AE02A4EB24201D10E
:10204000062605E0284EB24201D1072600E0082608
:102050008F073F0FBE4030431B4E8F0846F82700C6
:10206000224E3068A0435E6806F4801606B1204315
:102070001E4E3060361D3068A0435E6806F40016C0
:1020800006B12043194E361D3060184E361F306899
:10209000A0435E6806F4003606B12043134E361F97
:1020A0003060361F3068A0435E6806F4803606B1A3
:1020B00020430E4E083E3060491C1029FFF426AF25
:1020C000F8BD0000443802400838014000000240DA
:1020D0000004024000080240000C024000100240D0
:1020E0000014024000180240001C0240083C01405D
:1020F00001480068704700008000002070B5044669
:102100000CB9012070BD4CF6CC402168086045F246
:10211000555021680860D4E9001048602168A06823
:102120008860FFF7E5FF05460BE0FFF7E1FF401B86
:10213000312806D92068C06800F0030008B10320E8
:10214000E0E72068C06800F003000028EDD14AF6FF
:10215000AA20216808600020D4E701464AF6AA2098
:102160000A68106000207047034800680349097836
:102170000844014908607047800000208800002062
:1021800010B50D48006840F400700B49086008461F
:10219000006840F4806008600846006840F4807081
:1021A0000860032000F0DCF80F2000F007F800F0D2
:1021B0005FF8002010BD0000003C02402DE9F04116
:1021C00088B004460027B84600BF0020019023488D
:1021D000006840F02000214908600846006800F0CF
:1021E0002000019000BF00BF02A903A800F08EF9F3
:1021F000069F1FB900F0B2F9054602E000F0AEF903
:1022000045001748B5FBF0F0A0F101081548164944
:10221000086040F2E7311448C160C0F80480002132
:1022200001618160816100F061FC064696B90E484B
:1022300000F0B4FC06466EB9372000F043F8102CCD
:1022400007D200222146372000F04CF807480460EE
:1022500000E00126304608B0BDE8F0814038024079
:1022600040420F0000140040500500208400002070
:1022700008B500BF002000901148006840F480407D
:102280000F4908600846006800F48040009000BFD5
:1022900000BF00BF00200090081F006840F0805081
:1022A000091F08600846006800F08050009000BFD9
:1022B00000BF00220F21901E00F014F808BD00009E
:1022C0004438024001460846002809DB00F01F039D
:1022D00001229A4043099B0003F1E023C3F8002147
:1022E00000BF70472DE9F05F80460D461646002777
:1022F00002F09CFD074639462A46334601F00700A6
:10230000C0F1070ABAF1040F02D94FF0040A01E044
:10231000C0F1070AD14600F1040ABAF1070F02D250
:102320004FF0000A01E0A0F1030AD4464FF0010A81
:102330000AFA09FAAAF1010A0AEA020A0AFA0CFAE6
:102340004FF0010B0BFA0CFBABF1010B0BEA030B8B
:102350004AEA0B042146404602F070FDBDE8F09FBA
:1023600000BF00F00702064B19684FF6FF03194043
:10237000044B0B4343EA0221014B196000BF704735
:102380000CED00E00000FA0570B504460D460CB9EE
:10239000012070BD5848006800F00700A84209D22B
:1023A00055490D700846006800F00700A84201D0AA
:1023B0000120EEE7207800F0020002281DD12078ED
:1023C00000F00400042805D14C48006840F4E050B7
:1023D0004A490860207800F00800082805D14748DD
:1023E000006840F46040454908604448006820F0B7
:1023F000F000A168084341490860207800F001001E
:10240000A8B36068012807D13C4808380068C0F3C9
:102410004040B8B90120BCE76068022802D060687B
:10242000032807D1354808380068C0F3406048B930
:102430000120AEE7314808380068C0F3400008B911
:102440000120A6E72D48006820F0030061680843DA
:102450002A490860FFF74CFE064609E0FFF748FEF0
:10246000801B41F28831884202D9032091E707E0BE
:102470002248006800F00C006168B0EB810FEDD1DC
:102480001D48006800F00700A84209D91A490D70DC
:102490000846006800F00700A84201D0012078E754
:1024A000207800F00400042807D11448006820F4C4
:1024B000E050E168084311490860207800F0080006
:1024C000082808D10D48006820F46040216940EADE
:1024D000C1000A49086000F061F808490968C1F3C1
:1024E0000311074A515CC840064908600648006865
:1024F000FFF764FE00204CE7003C02400838024031
:10250000289500088C000020840000200F22026023
:102510000D4A126802F0030242600B4A126802F090
:10252000F0028260084A126802F4E052C260064A71
:10253000126802F46042D2080261044A126802F092
:1025400007020A607047000008380240003C024061
:1025500001480068704700008C00002000B5FFF7BC
:10256000F7FF04490968C1F38221034A515CC8405E
:1025700000BD0000083802403895000800B5FFF79C
:10258000E7FF04490968C1F34231034A515CC8407E
:1025900000BD000008380240389500082DE9F047DA
:1025A000002400250026A1462548006800F00C0004
:1025B00020B1042805D008283AD105E0DFF884903E
:1025C00039E0DFF8849036E01D48001F006800F015
:1025D0003F041B48001F006800F4800078B11A48CF
:1025E0001749091F0968C1F38811A0FB0170014652
:1025F000224600233846FDF7B7FE05460EE0114897
:102600000F49091F0968C1F38811A0FB0170014639
:10261000224600233846FDF7A7FE05460848001F5E
:102620000068C0F30140401C4600B5FBF6F902E02B
:10263000DFF8109000BF00BF4846BDE8F0870000FB
:10264000083802400024F40000127A00F8B504466D
:102650000CB90120F8BD207800F00100002874D0EA
:10266000F948006800F00C0004280DD0F648006816
:1026700000F00C00082813D1F348001F006800F494
:102680008000B0F5800F0BD1EF4808380068C0F328
:102690004040002859D06068002856D10120D9E771
:1026A00000BF6068B0F5803F08D1E748083800688F
:1026B00040F48030E449083908601EE06068B0F5F5
:1026C000A02F0DD1E0480838006840F48020DE4992
:1026D000083908600846006840F4803008600CE063
:1026E000D9480838006820F48030D7490839086094
:1026F0000846006820F48020086000BF606890B140
:10270000FFF7F6FC054606E0FFF7F2FC401B6428E5
:1027100001D903209EE7CC4808380068C0F3404048
:102720000028F1D011E0FFF7E3FC054606E0FFF7D3
:10273000DFFC401B642801D903208BE7C24808381E
:102740000068C0F340400028F1D1207800F002007A
:1027500002285FD1BC48006800F00C0058B1BA48AC
:10276000006800F00C0008281CD1B748001F006862
:1027700000F48000B0B9B44808380068C0F34000E5
:1027800020B1E068012801D0012063E7AE48083895
:10279000006820F0F800216940EAC100AA49083920
:1027A000086037E0E06800B30120A8490860FFF73F
:1027B0009FFC054606E0FFF79BFC401B022801D961
:1027C000032047E7A04808380068C0F3400000280D
:1027D000F1D09D480838006820F0F800216940EAEF
:1027E000C10099490839086014E000209749086041
:1027F000FFF77EFC054606E0FFF77AFC401B022847
:1028000001D9032026E7904808380068C0F340004B
:102810000028F1D1207800F0080008282CD1606948
:10282000A8B101208A490860FFF762FC054606E06E
:10283000FFF75EFC401B022801D903200AE782480B
:102840006C300068C0F340000028F1D014E0002094
:102850007F490860FFF74CFC054606E0FFF748FC9F
:10286000401B022801D90320F4E677486C30006849
:10287000C0F340000028F1D1207800F004000428C3
:1028800070D1002770483830006800F0805090B94F
:1028900000BF002000906C483830006840F0805045
:1028A0006949383108600846006800F0805000909F
:1028B00000BF00BF01276748006800F48070B0B90E
:1028C0006448006840F4807062490860FFF710FCBB
:1028D000054606E0FFF70CFC401B022801D9032047
:1028E000B8E65C48006800F480700028F2D000BFB1
:1028F000A068012808D154486830006840F0010001
:102900005149683108601DE0A06805280DD14E4886
:102910006830006840F004004B49683108600846A0
:10292000006840F0010008600CE04748683000682B
:1029300020F001004449683108600846006820F032
:102940000400086000BFA068A8B1FFF7D1FB0546EE
:1029500009E0FFF7CDFB401B41F28831884202D9E4
:10296000032077E626E0384868300068C0F340006E
:102970000028EED013E0FFF7BBFB054608E0FFF7A9
:10298000B7FB401B41F28831884201D9032061E640
:102990002D4868300068C0F340000028EFD1012FB7
:1029A00007D129483830006820F080502649383156
:1029B000086000BFA069002845D02348006800F0E7
:1029C0000C0008285DD0A069022845D100201F49CD
:1029D0000866FFF78DFB054606E0FFF789FB401B05
:1029E000022801D9032035E6174808380068C0F3EB
:1029F00040600028F1D1D4E907010843616A40EA48
:102A000081110122A06AC2EB500041EA00412C2052
:102A1000005D41EA00600C49091F086001200B4974
:102A20000866FFF765FB054606E0FFF761FB401B04
:102A3000022801D903200DE6034808380068C0F3D6
:102A400040600028F1D049E00838024000004742C9
:102A5000800E474200700040002021490866FFF7C1
:102A600047FB054606E0FFF743FB401B022801D960
:102A70000320EFE51B480068C0F340600028F2D156
:102A80002CE0A069012800D1E4E51648001D066885
:102A9000A069012820D006F48001E06981421BD1A1
:102AA00006F03F01206A814216D147F6C0703040DF
:102AB000616AB0EB811F0FD106F440310122A06A98
:102AC000C2EB5000B1EB004F06D106F070612C2034
:102AD000005DB1EB006F01D00120BBE50020B9E53E
:102AE00000004742003802407047704710B5044666
:102AF0000CB9012010BD94F83D0028B9002084F8DD
:102B00003C00204600F026F8022084F83D00211DFC
:102B1000206801F0EFFD012084F8460000BF84F832
:102B20003E0001213F200155402001554120015523
:102B300000BF00BF012084F842004320015544201B
:102B400001554520015500BF012084F83D000020BB
:102B5000D0E7000038B504460E492068884217D1F6
:102B600000BF002000900C48006840F400300A4983
:102B700008600846006800F40030009000BF00BF05
:102B8000002205211920FFF7ADFB1920FFF79AFB62
:102B900038BD00000044014044380240014691F82D
:102BA0003D00012801D001207047022081F83D003E
:102BB0000868C06840F001000B68D8601A4B0868CC
:102BC00098421BD00868B0F1804F17D0174B0868A7
:102BD000984213D0164B086898420FD0154B0868DE
:102BE00098420BD0144B0868984207D0134B0868E2
:102BF000984203D0124B086898420CD1086880684C
:102C000000F00702062A0CD00868006840F00100B6
:102C10000B68186005E00868006840F001000B6868
:102C200018600020C0E700000000014000040040E0
:102C300000080040000C004000040140004001403A
:102C400000180040704710B5044620680069C0F3C2
:102C50004000D8B12068C068C0F34000B0B16FF048
:102C6000020021680861012020772068806900F057
:102C7000030018B12046FFF7E5FF05E0204600F00D
:102C8000ADF8204600F0ABF80020207720680069FE
:102C9000C0F38000D8B12068C068C0F38000B0B134
:102CA0006FF00400216808610220207720688069A5
:102CB00000F4407018B12046FFF7C4FF05E020463D
:102CC00000F08CF8204600F08AF800202077206879
:102CD0000069C0F3C000D8B12068C068C0F3C0006C
:102CE000B0B16FF0080021680861042020772068E7
:102CF000C06900F0030018B12046FFF7A3FF05E00C
:102D0000204600F06BF8204600F069F8002020779C
:102D100020680069C0F30010D8B12068C068C0F313
:102D20000010B0B16FF01000216808610820207712
:102D30002068C06900F4407018B12046FFF782FF98
:102D400005E0204600F04AF8204600F048F8002050
:102D500020772068006900F0010058B12068C06841
:102D600000F0010030B16FF00100216808612046D9
:102D700000F036F820680069C0F3C01058B1206830
:102D8000C068C0F3C01030B16FF0800021680861E6
:102D90002046FFF7A9FE20680069C0F3801058B1F3
:102DA0002068C068C0F3801030B16FF04000216827
:102DB0000861204600F026F820680069C0F3401042
:102DC00058B12068C068C0F3401030B16FF02000E7
:102DD000216808612046FFF788FE10BD70477047E4
:102DE00010B5044605492068884201D1FFF7BCF9B7
:102DF0000348844201D103F03DF910BD00140040A6
:102E0000C00300207047704710B50446064920688B
:102E1000884207D101220549054800F087FA0020C1
:102E20000449087010BD0000004800405003002015
:102E30004C0400203F0000202DE9F84F0446206894
:102E400005682068C668206847694FF00009CA46CF
:102E500005F00F09B9F1000F0AD105F0200038B1D3
:102E600006F0200020B1204601F0A3FDBDE8F88F58
:102E7000B9F1000F7CD007F0010018B906F490708A
:102E8000002875D005F0010030B106F4807018B14B
:102E9000206C40F00100206405F0040030B107F020
:102EA000010018B1206C40F00200206405F002001F
:102EB00030B107F0010018B1206C40F0040020642C
:102EC00005F0080048B106F0200010B907F0010035
:102ED00018B1206C40F008002064206C002846D017
:102EE00005F0200028B106F0200010B1204601F0C6
:102EF00060FD20684069C0F3801A206C00F0080073
:102F000010B9BAF1000F2DD0204601F0F9FC20686D
:102F1000406900F04000402820D100BF00BF216878
:102F2000143151E8001F21F040002168143141E8BC
:102F30000002002AF3D100BFA06B50B17548A16B0D
:102F40000865A06BFEF7D7FD88B1A06B016D8847BF
:102F50000DE02046FFF758FF09E009E02046FFF7A3
:102F600053FF04E02046FFF74FFF002020647DE779
:102F7000206B012876D105F01000002872D006F0F1
:102F800010000028FAD000BF0020009020680068E0
:102F9000009020684068009000BF00BF2068406932
:102FA00000F0400040285ED1A06B006840681FFA26
:102FB00080F8B8F1000F54D0A08D404551DDA4F841
:102FC0002E80A06BC069B0F5807F43D000BF00BFEA
:102FD00021680C3151E8001F21F4807021680C3108
:102FE00041E80002002AF3D100BF00BF00BF216802
:102FF000143151E8001F21F001002168143141E82B
:103000000002002AF3D100BF00BF00BF21681431C5
:1030100051E8001F21F040002168143141E800020E
:10302000002AF3D100BF202084F83E000020206356
:1030300000BF00BF21680C3151E8001F21F01000D3
:1030400021680C3141E80002002AF3D100BFA06BD7
:10305000FEF7FBFCA08DE28D801A81B22046FFF7BF
:10306000D2FE03E740E0A08DE18D401A1FFA80F800
:10307000E08DC0B3B8F1000F35D000BF00BF2168AC
:103080000C3151E8001F21F4907021680C3141E8A7
:103090000002002AF3D100BF00BF00BF2168143135
:1030A00051E8001F21F001002168143141E80002BD
:1030B000002AF3D100BF202084F83E0000202063C6
:1030C00000BF00BF21680C3151E8001F21F0100043
:1030D00021680C3141E80002002AF3D100BF4146CB
:1030E0002046FFF790FEC1E605F0800030B106F003
:1030F000800018B1204601F057FEB7E605F0400009
:1031000030B106F0400018B1204601F02FFCADE6CA
:1031100000BFABE6CD47000810B504460CB901204E
:1031200010BDA06900B100E000BF94F83D0028B9CF
:10313000002084F83C00204600F028F8242084F881
:103140003D002068C06820F400502168C860204617
:1031500001F0ACFC2068006920F49040216808610F
:103160002068406920F02A00216848612068C06812
:1031700040F400502168C86000202064202084F8BA
:103180003D0084F83E000020CAE7000010B586B07C
:103190000446142101A8FDF7ABF95C492068884278
:1031A00038D100BF002000905948006840F400303A
:1031B000574908600846006800F40030009000BFDE
:1031C00000BF00BF0020009051481038006840F058
:1031D00008004F49103908600846006800F00800F0
:1031E000009000BF00BF60200190022002900020EC
:1031F0000390032004900720059001A94548FEF79D
:103200007DFE002205212620FFF76CF82620FFF71F
:1032100059F878E040492068884274D100BF002006
:1032200000903B48006840F4802039490860084617
:10323000006800F48020009000BF00BF00BF0020A5
:10324000009033481038006840F0020030491039CF
:1032500008600846006800F00200009000BF00BF50
:103260004FF4406001900220029000200390032060
:1032700004900720059001A92848FEF73FFE284842
:10328000284908604FF000604860002125488160AF
:10329000C1604FF480610161002141618161C161C0
:1032A00001624162FEF75CFD08B1FDF7FBFD00BF66
:1032B0001C48A063846300BF194830301A49086075
:1032C0004FF0006048604021174881600021C160D4
:1032D0004FF480610161002141618161C16101623E
:1032E0004162FEF73DFD08B1FDF7DCFD00BF0E4871
:1032F0006063846300BF002205212720FEF7F2FFF0
:103300002720FEF7DFFF06B010BD0000004400409C
:1033100040380240000C02400048004000040240D7
:103320002860024090040020F004002070B504469C
:103330000D46164694F83E00202816D105B10EB968
:10334000012070BD00BF94F83C00012801D102208B
:10335000F7E7012084F83C0000BF002020633246DC
:103360002946204601F0B8FCEBE70220E9E700001F
:1033700010B5044618492068884229D117480078BA
:10338000AA280DD11648007850B9FDF785F9112209
:103390001249491C1348FFF7C9FF01201049087062
:1033A0000E480078AA280BD10D480078012807D1D3
:1033B000FDF772F9122209490A48FFF7B7FF07E043
:1033C000012206490748FFF7B1FF002004490870B1
:1033D00001200549086010BD00480040500300204E
:1033E0003F0000204C04002024000020704770475C
:1033F00000BFFEE770B52DED0E8BB0EE40AAF0EEEB
:1034000060AAB0EE41BAF0EE61BA05460C4653EC44
:103410001B2B51EC1A0B05F0A9FE41EC180B4F4881
:1034200090ED101BB0EE410AF0EE610A53EC182B40
:1034300051EC100B05F066FD41EC1E0B94ED001BEA
:10344000B0EE410AF0EE610A53EC102B05F066FF76
:1034500041EC1D0B9FED420B53EC102B05F052FD80
:1034600041EC1C0B3D4890ED181BB0EE410AF0EE0C
:10347000610A53EC182B51EC100B05F043FD41ECA5
:103480001E0B94ED021BB0EE410AF0EE610A53EC04
:10349000102B05F095FA41EC1D0B53EC1C2B05F09D
:1034A0008FFA41EC190B9FED300B53EC102B51ECC4
:1034B000190B05F025FE04D29FED2B0B85ED000BBB
:1034C0000FE09FED2B0B53EC102B51EC190B05F07B
:1034D000DDFC04D29FED260B85ED000B01E085EDB0
:1034E000009B53EC1C2B9FED240B51EC100B05F0B3
:1034F00009FD41EC1D0B94ED001BB0EE410AF0EE0E
:10350000610A53EC102B05F05BFAC4E90001134883
:1035100090ED141BB0EE410AF0EE610A53EC182B4B
:1035200051EC100B05F0EEFC41EC1E0B9FED120B65
:1035300053EC102B05F0E6FC41EC1D0B94ED021B47
:10354000B0EE410AF0EE610A53EC102B05F038FAA8
:10355000C4E90201BDEC0E8B70BD0000A00000208C
:103560000000000000005940000000000000D040B2
:10357000000000000000D0C0FCA9F1D24D62503F15
:1035800070B52DED108B88B0B0EE40CAF0EE60CA79
:10359000B0EE41DAF0EE61DAB0EE42AAF0EE62AAE5
:1035A000B0EE43EAF0EE63EAB0EE44BAF0EE64BA8D
:1035B00005460E46144653EC1B2B9FEDFE0B51ECBB
:1035C000100B05F09FFC53EC1A2BCDE900019DED8B
:1035D000000B51EC100B05F0F3F953EC1D2BCDE96A
:1035E00002019DED020B51EC100B05F0BFFD41EC0B
:1035F000190BB0EE490AF0EE690A01F036FCB0EEA4
:10360000408AF0EE608AED4890ED001BB0EE410A72
:10361000F0EE610A53EC102B51EC180B05F070FD25
:1036200005D39FEDE70BB0EE409AF0EE609AE348C9
:1036300090ED101BB0EE410AF0EE610A53EC192B2D
:1036400051EC100B05F05EFCCDE9000194ED061B7A
:10365000B0EE410AF0EE610A53EC102B9DED001B19
:1036600051EC110B05F05AFE9FEDD70B53EC102BCC
:10367000CDE902019DED020B51EC100B05F042FC6F
:1036800041EC1F0BCD4890ED001BB0EE410AF0EE6F
:10369000610A53EC102B51EC180B05F031FD63D28D
:1036A000C64890ED181BB0EE410AF0EE610A53ECEB
:1036B000192B51EC100B05F025FCCDE9000194ED20
:1036C000041BB0EE410AF0EE610A53EC102B9DEDA5
:1036D000001B51EC110B05F073F953EC1F2BCDE9D6
:1036E00002019DED020B51EC100B05F069F9CDE9DB
:1036F00006019FEDB70B53EC102B9DED060B51EC23
:10370000100B05F0FDFC04D29FEDB10B8DED060B07
:103710000EE09FEDB10B53EC102B9DED060B51EC21
:10372000100B05F0B3FB03D29FEDAB0B8DED060B39
:10373000A24890ED1A1BB0EE410AF0EE610A9DED31
:10374000061B53EC112B51EC100B05F0DBFB53EC7B
:103750001C2BCDE902019DED020B51EC100B05F085
:10376000DDFD41EC180B05E09FED950BB0EE408AB6
:10377000F0EE608A914890ED041BB0EE410AF0EE45
:10378000610A53EC182B51EC100B05F0BBFBCDE993
:10379000000194ED081BB0EE410AF0EE610A53EC13
:1037A000102B9DED001B51EC110B05F0B7FD9FEDAB
:1037B000860B53EC102BCDE902019DED020B51EC71
:1037C000100B05F09FFBCDE904017C4890ED0C1B2C
:1037D000B0EE410AF0EE610A53EC182B51EC100BDD
:1037E00005F090FBCDE9000194ED0A1BB0EE410A13
:1037F000F0EE610A53EC102B9DED001B51EC110B08
:1038000005F0DEF8CDE902019DED040B53EC102B21
:103810009DED020B51EC100B05F0D2F8CDE906013D
:103820009FED6B0B53EC102B9DED060B51EC100B29
:1038300005F066FC04D29FED660B85ED000B13E0EE
:103840009FED650B53EC102B9DED060B51EC100B0F
:1038500005F01CFB04D29FED600B85ED000B03E02F
:103860009DED060B85ED000B53EC1E2B51EC1A0B56
:1038700005F054FDCDE90201A11C881D9DED020B50
:10388000FDF76CF994ED021BB0EE410AF0EE610A0F
:1038900053EC1B2B51EC100B05F092F8C6E900011C
:1038A000214606A89FED461B9FED450BFDF7FEF94F
:1038B000424890ED141BB0EE410AF0EE610A53EC61
:1038C000192B51EC100B05F01DFB9FED450B53EC34
:1038D000102BCDE900019DED000B51EC100B05F014
:1038E00011FBCDE9020194ED041BB0EE410AF0EEAC
:1038F000610A53EC102B9DED021B51EC110B05F0EE
:103900005FF8C4E9040153EC1F2B9FED350B51EC1C
:10391000100B05F0F7FACDE9020194ED061BB0EEAD
:10392000410AF0EE610A53EC102B9DED021B51ECA5
:10393000110B05F045F8C4E906019DED040B53ECAD
:10394000102B9FED270B51EC100B05F0DBFACDE9A6
:10395000020194ED081BB0EE410AF0EE610A53EC4F
:10396000102B9DED021B51EC110B05F029F8C4E959
:103970000801124890ED081BB0EE410AF0EE610A12
:1039800053EC182B51EC100B05F0BCFA9FED140B07
:1039900053EC102BCDE900019DED000B51EC100B09
:1039A00005F0B0FACDE9020194ED0A1BB0EE410A30
:1039B0001AE000000000000000FFBF40A00000204F
:1039C000000000000000000000000000000059405E
:1039D000000000000000D040000000000000D0C047
:1039E000FCA9F1D24D62503FF0EE610A53EC102B6E
:1039F0009DED021B51EC110B04F0E2FFC4E90A013A
:103A000008B0BDEC108B70BD1CB5044604F1080075
:103A1000FDF742F96846FDF791F91CBD70B52DED33
:103A2000108B88B0B0EE40CAF0EE60CAB0EE41DA5A
:103A3000F0EE61DAB0EE42AAF0EE62AAB0EE43EA2E
:103A4000F0EE63EAB0EE44BAF0EE64BA05460E4614
:103A5000144653EC1B2B9FEDFE0B51EC100B05F0A5
:103A600051FA53EC1A2BCDE900019DED000B51ECFE
:103A7000100B04F0A5FF53EC1D2BCDE902019DEDC9
:103A8000020B51EC100B05F071FB41EC190BB0EE81
:103A9000490AF0EE690A01F0E8F9B0EE408AF0EE6A
:103AA000608AED4890ED001BB0EE410AF0EE610A2D
:103AB00053EC102B51EC180B05F022FB05D39FEDB6
:103AC000E70BB0EE409AF0EE609AE34890ED0E1BE3
:103AD000B0EE410AF0EE610A53EC192B51EC100BD9
:103AE00005F010FACDE9000194ED061BB0EE410A95
:103AF000F0EE610A53EC102B9DED001B51EC110B05
:103B000005F00CFC9FEDD70B53EC102BCDE9020117
:103B10009DED020B51EC100B05F0F4F941EC1F0B7D
:103B2000CD4890ED001BB0EE410AF0EE610A53EC77
:103B3000102B51EC180B05F0E3FA63D2C64890ED58
:103B4000161BB0EE410AF0EE610A53EC192B51EC52
:103B5000100B05F0D7F9CDE9000194ED041BB0EE90
:103B6000410AF0EE610A53EC102B9DED001B51EC65
:103B7000110B04F025FF53EC1F2BCDE902019DED45
:103B8000020B51EC100B04F01BFFCDE906019FED79
:103B9000B70B53EC102B9DED060B51EC100B05F001
:103BA000AFFA04D29FEDB10B8DED060B0EE09FED49
:103BB000B10B53EC102B9DED060B51EC100B05F0E7
:103BC00065F903D29FEDAB0B8DED060BA24890ED8E
:103BD0001A1BB0EE410AF0EE610A9DED061B53EC94
:103BE000112B51EC100B05F08DF953EC1C2BCDE98A
:103BF00002019DED020B51EC100B05F08FFB41EC27
:103C0000180B05E09FED950BB0EE408AF0EE608A50
:103C1000914890ED021BB0EE410AF0EE610A53ECC0
:103C2000182B51EC100B05F06DF9CDE9000194ED66
:103C3000081BB0EE410AF0EE610A53EC102B9DED2B
:103C4000001B51EC110B05F069FB9FED860B53EC4B
:103C5000102BCDE902019DED020B51EC100B05F08C
:103C600051F9CDE904017C4890ED0A1BB0EE410A00
:103C7000F0EE610A53EC182B51EC100B05F042F9F1
:103C8000CDE9000194ED0A1BB0EE410AF0EE610AA5
:103C900053EC102B9DED001B51EC110B04F090FE2A
:103CA000CDE902019DED040B53EC102B9DED020BB1
:103CB00051EC100B04F084FECDE906019FED6B0B77
:103CC00053EC102B9DED060B51EC100B05F018FA80
:103CD00004D29FED660B85ED000B13E09FED650BA5
:103CE00053EC102B9DED060B51EC100B05F0CEF8AC
:103CF00004D29FED600B85ED000B03E09DED060BFC
:103D000085ED000B53EC1E2B51EC1A0B05F006FB56
:103D1000CDE90201A11C881D9DED020BFCF71EFFE1
:103D200094ED021BB0EE410AF0EE610A53EC1B2B3E
:103D300051EC100B04F044FEC6E90001214606A830
:103D40009FED461B9FED450BFCF7B0FF424890ED01
:103D5000121BB0EE410AF0EE610A53EC192B51EC44
:103D6000100B05F0CFF89FED450B53EC102BCDE970
:103D700000019DED000B51EC100B05F0C3F8CDE9EF
:103D8000020194ED041BB0EE410AF0EE610A53EC1F
:103D9000102B9DED021B51EC110B04F011FEC4E938
:103DA000040153EC1F2B9FED350B51EC100B05F06C
:103DB000A9F8CDE9020194ED061BB0EE410AF0EE40
:103DC000610A53EC102B9DED021B51EC110B04F01A
:103DD000F7FDC4E906019DED040B53EC102B9FED9C
:103DE000270B51EC100B05F08DF8CDE9020194ED95
:103DF000081BB0EE410AF0EE610A53EC102B9DED6A
:103E0000021B51EC110B04F0DBFDC4E90801124860
:103E100090ED061BB0EE410AF0EE610A53EC182B50
:103E200051EC100B05F06EF89FED140B53EC102BBA
:103E3000CDE900019DED000B51EC100B05F062F88F
:103E4000CDE9020194ED0A1BB0EE410A1AE0000030
:103E50000000000000FFBF40A000002000000000A4
:103E600000000000000000000000594000000000B9
:103E70000000D040000000000000D0C0FCA9F1D23A
:103E80004D62503FF0EE610A53EC102B9DED021B8A
:103E900051EC110B04F094FDC4E90A0108B0BDEC2B
:103EA000108B70BD1CB5044604F10800FCF7F4FE4D
:103EB0006846FCF743FF1CBD70B52DED0E8BB0EED0
:103EC00040AAF0EE60AAB0EE41BAF0EE61BA054643
:103ED0000C4653EC1B2B51EC1A0B05F047F941EC47
:103EE000180B4F4890ED0E1BB0EE410AF0EE610A40
:103EF00053EC182B51EC100B05F004F841EC1E0BA1
:103F000094ED001BB0EE410AF0EE610A53EC102B69
:103F100005F004FA41EC1D0B9FED420B53EC102B06
:103F200004F0F0FF41EC1C0B3D4890ED161BB0EE89
:103F3000410AF0EE610A53EC182B51EC100B04F01F
:103F4000E1FF41EC1E0B94ED021BB0EE410AF0EED6
:103F5000610A53EC102B04F033FD41EC1D0B53ECC4
:103F60001C2B04F02DFD41EC190B9FED300B53EC95
:103F7000102B51EC190B05F0C3F804D29FED2B0B5D
:103F800085ED000B0FE09FED2B0B53EC102B51EC4C
:103F9000190B04F07BFF04D29FED260B85ED000B7F
:103FA00001E085ED009B53EC1C2B9FED240B51ECA5
:103FB000100B04F0A7FF41EC1D0B94ED001BB0EEBD
:103FC000410AF0EE610A53EC102B04F0F9FCC4E94D
:103FD0000001134890ED121BB0EE410AF0EE610AA9
:103FE00053EC182B51EC100B04F08CFF41EC1E0B22
:103FF0009FED120B53EC102B04F084FF41EC1D0BD2
:1040000094ED021BB0EE410AF0EE610A53EC102B66
:1040100004F0D6FCC4E90201BDEC0E8B70BD0000BB
:10402000A000002000000000000059400000000037
:104030000000D040000000000000D0C0FCA9F1D278
:104040004D62503F10B50E480E490860032048608D
:1040500000210C488160C1604FF4002101614FF4E0
:10406000401141610021017641768176C176017768
:104070004177FDF752FA08B1FCF714FF10BD0000BC
:10408000006400406403002010B50E480E4908602B
:104090000320486000210C488160C1604FF400217A
:1040A00001614FF440114161002101764176817632
:1040B000C17601774177FDF730FA08B1FCF7F2FEDF
:1040C00010BD0000006800408C03002008B500BF50
:1040D000002000900E48006840F400100C49086071
:1040E0000846006800F40010009000BF00BF0022E6
:1040F00005210C20FEF7F6F80C20FEF7E3F800226D
:1041000005210E20FEF7EEF80E20FEF7DBF808BDC5
:104110003038024010B5044A0021044801F0F4FE92
:104120000349086010BD0000FC9400081D4300080E
:104130007800002000B587B0142102A8FCF7D8F958
:1041400000BF002001903D48006840F080003B49DE
:1041500008600846006800F08000019000BF00BFC2
:1041600000BF002001900846006840F0020008608F
:104170000846006800F00200019000BF00BF00BFC9
:10418000002001900846006840F0400008600846A2
:10419000006800F04000019000BF00BF00BF002099
:1041A00001900846006840F0010008600846006879
:1041B00000F00100019000BF00BF00BF002001908F
:1041C0000846006840F0080008600846006800F0F3
:1041D0000800019000BF00BF4FF4A87002904FF498
:1041E000041003900120049002A91548FDF786FEF3
:1041F0004FF4805002904FF404100390012004907B
:1042000002A91048FDF77AFE002209210A20FEF7D4
:1042100069F80A20FEF756F8002209211720FEF758
:1042200061F81720FEF74EF8002209212820FEF73A
:1042300059F82820FEF746F807B000BD3038024094
:10424000001802400000024010B507480749086006
:104250000420486040F2712104488160FDF74EFF60
:1042600008B1FCF71FFE10BD00300040B403002071
:1042700010B50A480A490860A7204860002108488C
:10428000816040F2E731C1600021016180218161DC
:10429000FEF72CFC08B1FCF705FE10BD0044014000
:1042A000C003002010B50B480B4908604FF4E13003
:1042B0004860002108488160C16001610C214161B2
:1042C00000218161C161FEF727FF08B1FCF7EAFD1B
:1042D00010BD0000004400400804002010B50B4849
:1042E0000B4908604FF4E1304860002108488160C4
:1042F000C16001610C21416100218161C161FEF752
:104300000BFF08B1FCF7CEFD10BD000000480040D7
:104310004C04002000BFFEE700BFFEE72DED028B3E
:104320008CB000BFA448B0F90000092190FBF1F463
:10433000204604F080FDA14A03C29FEDA10BA248D4
:1043400080ED000B9FED9E0BA04880ED000BA04878
:1043500090ED000B53EC102B9B4890ED000B51ECB3
:10436000100B04F0CDFE0ED2994890ED000B53ECEB
:10437000102B954890ED000B51EC100B04F0CEFF84
:10438000914A03C226E0924890ED000B51EC100BCD
:1043900004F00AFB41EC180B8B4890ED000B53EC3A
:1043A000102B51EC180B04F0ABFE0ED2884890EDA8
:1043B000000B53EC102B844890ED000B51EC100BCC
:1043C00004F0FEFA804A03C204E09FED7D0B7E48B4
:1043D00080ED000B7E4890ED000B53EC102B7748DE
:1043E00090ED000B51EC100B04F08AFE0ED27848D1
:1043F00090ED000B53EC102B704890ED000B51EC3E
:10440000100B04F08BFF6D4A03C226E0704890ED5C
:10441000000B51EC100B04F0C7FA41EC180B674885
:1044200090ED000B53EC102B51EC180B04F068FED0
:104430000ED2674890ED000B53EC102B5F4890EDC7
:10444000000B51EC100B04F0BBFA5C4A03C204E011
:104450009FED5B0B594880ED000B5D4890ED000B24
:1044600053EC102B594890ED000B51EC100B04F05D
:1044700047FE0ED2564890ED000B53EC102B5348DC
:1044800090ED000B51EC100B04F048FF4F4A03C2B3
:1044900026E04F4890ED000B51EC100B04F084FA2D
:1044A00041EC180B494890ED000B53EC102B51ECEC
:1044B000180B04F025FE0ED2454890ED000B53EC8E
:1044C000102B424890ED000B51EC100B04F078FAE1
:1044D0003E4A03C204E09FED3A0B3C4880ED000BDE
:1044E0003C480068401C3B4908603B48006820B9D4
:1044F0003A480068401C3949086038480068B0F5FF
:10450000967F1BDD9FED2E0B2F4880ED000B9FED5E
:104510002C0B2A4880ED000B9FED290B2B4880EDDA
:10452000000B00202E490880234908802D4908806F
:104530002D49088040F22D1028490860264800685F
:10454000012802D10020254908602248006832284D
:1045500004D10020204908601E4908602348FDF767
:10456000FCFD01F05FF90120089009900A900B9082
:104570000220049005900690079001200090019081
:104580000290034602460146039003F027F80F48C5
:1045900090ED002B094890ED001B0B4890ED000BAF
:1045A00000F034FE00F0A8FC01F000FC01F02AFC51
:1045B000012001F053FCB5E6360000205000002039
:1045C000000000000000000048000020580000200B
:1045D000400000202C0000202400002028000020A3
:1045E000340000203000002032000020B4030020FE
:1045F00010B54FF0E020006903F080FF012801D0E2
:1046000003F0CAFB10BD000000B593B0302107A82D
:10461000FBF76EFF142102A8FBF76AFF00BF002022
:1046200001902548006840F0805023490860084602
:10463000006800F08050019000BF00BF00BF002064
:1046400001901E48006840F480401C4908600846FC
:10465000006800F48040019000BF00BF092007906F
:104660004FF48030089001200C9002200D904105FD
:104670000E9104210F91A821109102211191042182
:10468000129107A8FDF7E2FF08B1FCF70BFC0F2021
:10469000029002200390002004904FF4A050059057
:1046A0004FF480500690052102A8FDF76DFE08B179
:1046B000FCF7F8FB13B000BD40380240007000402A
:1046C0000348006840F4700001490860704700002A
:1046D00088ED00E010B50248FEF7B5FA10BD000005
:1046E000C003002010B50248FEF7ADFA10BD00006F
:1046F0005005002010B50268294B98420ED0B0F149
:10470000804F0BD0274B984208D0274B984205D0BA
:10471000264B984202D0264B984203D122F07002D9
:104720004B681A431E4B984220D0B0F1804F1DD0E9
:104730001C4B98421AD01C4B984217D01B4B9842E6
:1047400014D01B4B984211D01A4B98420ED01A4BE2
:1047500098420BD0194B984208D0194B984205D07B
:10476000184B984202D0184B984203D122F4407261
:10477000CB681A4322F080034C6943EA04020260CA
:104780008B68C3620B688362054B984202D0084B6A
:10479000984201D10B6903630123436110BD0000FE
:1047A000000001400004004000080040000C0040F0
:1047B0000004014000400140004401400048014025
:1047C00000180040001C00400020004070B5054665
:1047D000AC6B0020E085E0842046FEF715FB70BD41
:1047E00070B506460025B46B20684069C0F3C0155B
:1047F00094F83D00212805D125B10020E084204611
:1048000000F0C4F820684069C0F3801594F83E00B9
:10481000222805D125B10020E085204600F070F85F
:10482000206C40F0100020642046FEF7EDFA70BDC9
:1048300070B50546AC6B2868006800F480700028ED
:1048400042D1E08500BF00BF21680C3151E8001F54
:1048500021F4807021680C3141E80002002AF3D174
:1048600000BF00BF00BF2168143151E8001F21F0D4
:1048700001002168143141E80002002AF3D100BF91
:1048800000BF00BF2168143151E8001F21F0400033
:104890002168143141E80002002AF3D100BF202032
:1048A00084F83E00206B01280ED100BF00BF2168B4
:1048B0000C3151E8001F21F0100021680C3141E853
:1048C0000002002AF3D100BF206B012804D1A18D82
:1048D0002046FEF798FA02E02046FEF749FD70BD3B
:1048E00070B50546AC6B206B012805D1A08D410841
:1048F0002046FEF788FA02E02046FEF777FD70BDFD
:1049000000BF00BF02680C3252E8002F22F4907101
:1049100002680C3242E80013002BF3D100BF00BF45
:1049200000BF0268143252E8002F22F00101026831
:10493000143242E80013002BF3D100BF016B0129B0
:104940000ED100BF00BF02680C3252E8002F22F0E7
:10495000100102680C3242E80013002BF3D100BFB3
:10496000202180F83E1000210163704710B50446F5
:104970002068C06820F040002168C860202084F8CA
:104980003D002046FEF733FD002010BD00BF00BFF4
:1049900002680C3252E8002F22F0C00102680C328B
:1049A00042E80013002BF3D100BF202180F83D1016
:1049B0007047F8B5044694F83E00222873D1A068E9
:1049C000B0F5805F0CD1206950B90025A66A206837
:1049D0004068C0F308003080A06A801CA06215E027
:1049E000A56A0026A068B0F5805F03D0A06828B94A
:1049F000206918B920684068287004E02068406881
:104A000000F07F002870A06A401CA062E08D401E6C
:104A100080B2E085002844D12068C06820F02000E2
:104A20002168C8602068C06820F480702168C86070
:104A30002068406920F0010021684861202084F846
:104A40003E00206B012826D10020206300BF00BF5C
:104A500021680C3151E8001F21F0100021680C3151
:104A600041E80002002AF3D100BF2068006800F08E
:104A7000100010280AD100BF0020009020680068B4
:104A8000009020684068009000BF00BFA18D2046C4
:104A9000FEF7B9F902E02046FEF76AFC0020F8BDF7
:104AA00001E00020FBE70220F9E700002DE9F84FC4
:104AB00004462068006920F44050E16808432168FA
:104AC00008612169A068084361690843E1690843F6
:104AD00000902068C06849F20C618843009908433F
:104AE0002168C8602068406920F44070A1690843CB
:104AF0002168486176492068884203D0754920685A
:104B0000884203D1FDF73AFD814602E0FDF726FD1C
:104B10008146E069B0F5004F6CD102206168A0FBCE
:104B2000015003461920A9FB007001462A46384669
:104B3000FBF71AFC6421B0FBF1F04FEA001A0220E7
:104B40006168A0FB01510B461920A9FB00712A46A0
:104B50003846FBF709FC834602206168A0FB015040
:104B600003461920A9FB00712A463846FBF7FCFBD7
:104B70006421B0FBF1F000EBC00101EB0010ABEBE6
:104B80008000322101EBC0006421B0FBF1F000F0A5
:104B9000F8000AEB400A02206168A0FB01500346BE
:104BA0001920A9FB007001462A463846FBF7DCFBBA
:104BB000834602206168A0FB015003461920A9FB2F
:104BC00000712A463846FBF7CFFB6421B0FBF1F0B9
:104BD00000EBC00101EB0010ABEB8000322101EBD8
:104BE000C0006421B0FBF1F000F0070050442168E0
:104BF00088606AE004206168A0FB01500346192028
:104C0000A9FB007001462A463846FBF7ADFB8246F9
:104C100004206168A0FB015003461920A9FB007025
:104C200001462A463846FBF79FFB6421B0FBF1F0B2
:104C300000EBC00101EB0010AAEB8000322101EB78
:104C400000106421B0FBF1F000F0F00A042061686C
:104C5000A0FB017003461920A9FB00513A462846E3
:104C6000FBF782FB6421B0FBF1F00AEB001A042091
:104C70006168A0FB01510B461920A9FB00712A466F
:104C80003846FBF771FB834604206168A0FB0150A6
:104C900003461920A9FB007001462A463846FBF757
:104CA00063FB6421B0FBF1F000EBC00101EB0010ED
:104CB000ABEB8000322101EB00106421B0FBF1F07E
:104CC00000F00F00504421688860BDE8F88F0000B4
:104CD000001001400014014077B581B0044615462C
:104CE0000298A062A58500202064222084F83E005E
:104CF0002A48A16BC8632A48A16B08642948A16BA4
:104D0000C8640020A16B086502AE32682368191DD3
:104D10002B46A06BFDF79AF800BF0020009020689A
:104D20000068009020684068009000BF00BF00BF8E
:104D3000002084F83C0000BF206970B100BF00BFB4
:104D400021680C3151E8001F41F4807021680C315A
:104D500041E80002002AF3D100BF00BF00BF216874
:104D6000143151E8001F41F001002168143141E87D
:104D70000002002AF3D100BF00BF00BF2168143138
:104D800051E8001F41F040002168143141E8000261
:104D9000002AF3D100BF002004B070BD31480008E4
:104DA000E1480008E1470008014691F83D0021284C
:104DB00028D18868B0F5805F0BD1086948B90A6AC4
:104DC0001088C0F308000B685860086A801C0862ED
:104DD00005E00B6A581C086218780B685860C88C8C
:104DE000401E80B2C88458B90868C06820F08000AE
:104DF0000B68D8600868C06840F040000B68D86055
:104E0000002070470220FCE710B50248FEF714F8B6
:104E100010BD00000804002010B50248FEF70CF891
:104E200010BD00004C04002000BFFEE702480068EF
:104E3000C0F30220704700000CED00E010B5002820
:104E400004DB0A07130E054A135406E00A07140E82
:104E5000034A00F00F031B1FD45410BD00E400E010
:104E600018ED00E0EFF3058070472DED020B01987F
:104E700020F0004001909DED000B02B0704700B59E
:104E80002DED048BB0EE409AF0EE609A83B051ECB9
:104E9000190B04F077F941EC180B18EE100A18EE14
:104EA000901A8DED008B002818BF0120084320F0D8
:104EB0000040C0F17F6000F1E040C00F14D019EE57
:104EC000101A19EE900A8DED009B002918BF0121E0
:104ED000084320F00040C0F17F6000F1E040C00FC7
:104EE00004BF0120FBF733FBB0EE480A03B0F0EE3D
:104EF000680ABDEC048B00BD2DE9FF5F9E4890ED74
:104F0000000B9E4880ED000B9B4890ED060B9B48E4
:104F100080ED020B984890ED0C0B984880ED040B47
:104F2000954890ED120B954880ED060B924890ED58
:104F30005A0B924880ED080B8F4890ED180B8F4864
:104F400080ED0A0B8C4890ED1E0B8C4880ED0C0B0D
:104F5000894890ED240B894880ED0E0B864890ED32
:104F60002C0B864880ED100B834890ED320B834864
:104F700080ED120B804890ED380B804880ED140BCB
:104F80007D4890ED3E0B7D4880ED160B7A4890ED04
:104F9000420B7A4880ED180B774890ED480B774824
:104FA00080ED1A0B744890ED4E0B744880ED1C0B8D
:104FB000714890ED540B714880ED1E0B90ED0E1B67
:104FC000B0EE410AF0EE610A51EC100B03F004FF61
:104FD00004B26A4890ED0C1BB0EE410AF0EE610A93
:104FE00051EC100B03F0F8FE05B2644890ED0A1B7B
:104FF000B0EE410AF0EE610A51EC100B03F0ECFE4A
:1050000006B25E4890ED081BB0EE410AF0EE610A70
:1050100051EC100B03F0E0FE07B2584890ED061B70
:10502000B0EE410AF0EE610A51EC100B03F0D4FE31
:105030000FFA80F8514890ED041BB0EE410AF0EEF3
:10504000610A51EC100B03F0C7FE0FFA80F94B48D0
:1050500090ED021BB0EE410AF0EE610A51EC100B2C
:1050600003F0BAFE0FFA80FA444890ED001BB0EE50
:10507000410AF0EE610A51EC100B03F0ADFE0FFA9D
:1050800080FB43464A4651465846CDE90076CDE975
:105090000254FBF79BFC394890ED1E1BB0EE410A11
:1050A000F0EE610A51EC100B03F096FE04B23348A7
:1050B00090ED1C1BB0EE410AF0EE610A51EC100BB2
:1050C00003F08AFE05B22D4890ED1A1BB0EE410A9E
:1050D000F0EE610A51EC100B03F07EFE06B2274899
:1050E00090ED181BB0EE410AF0EE610A51EC100B86
:1050F00003F072FE07B2214890ED161BB0EE410A94
:10510000F0EE610A51EC100B03F066FE0FFA80F826
:105110001A4890ED141BB0EE410AF0EE610A51EC12
:10512000100B03F059FE0FFA80F9144890ED121B92
:10513000B0EE410AF0EE610A51EC100B03F04CFEA8
:105140000FFA80FA0D4890ED101BB0EE410AF0EE18
:10515000610A51EC100B03F03FFE0FFA80FB43464F
:105160004A4651465846CDE90076CDE90254FBF750
:1051700093FCBDE8FF9F0000180D0020980500205B
:1051800000B58BB001200990002007900120089005
:10519000002001900290039004900690059001A9D0
:1051A0000B48FBF743FF0A48FCF719FC02210848AB
:1051B000FBF77BFE01A90748FBF738FF0548FCF722
:1051C0000EFC02210348FBF770FE0BB000BD00008F
:1051D000640300208C0300200188B0F90820891A9C
:1051E00041F28832914203DDC168491EC16009E085
:1051F0000188B0F90820891A034A914202DAC1688D
:10520000491CC1607047000078ECFFFF00B52DED30
:10521000108B89B0B0EE408AF0EE608AB0EE419A11
:10522000F0EE619AB0EE42AAF0EE62AA0CE0FE48FF
:1052300090ED000B53EC102B9FEDFC0B51EC100B81
:1052400003F060FEF84A03C29FEDFA0BFFF717FE6A
:10525000B0EE40FAF0EE60FA9FEDF60B53EC102B37
:1052600051EC1F0B03F060FC41EC1E0B53EC192BAF
:1052700003F048FE9FEDEF0BCDE90401FFF7FFFDC2
:10528000B0EE40FAF0EE60FA9FEDEA0B53EC102B13
:1052900051EC1F0B03F048FC41EC1E0B53EC182B98
:1052A00003F030FECDE902019DED040B53EC102B11
:1052B0009DED020B51EC100B04F030F841EC1D0B8E
:1052C00053EC1A2B03F07CFB41EC1C0BD64890ED01
:1052D000000B53EC102B51EC1C0B03F013FE41ECB4
:1052E0001B0BB0EE4B0AF0EE6B0AFFF7BEFD8DED27
:1052F000060B9FEDD20B53EC102B9DED060B51ECE2
:10530000100B03F0FDFE92D39FEDCA0BFFF7B7FD24
:10531000B0EE40FAF0EE60FA9FEDC60B53EC102BA6
:1053200051EC1F0B03F000FC41EC1E0B53EC192B4E
:1053300003F0E8FD41EC1D0B9FEDBE0BFFF79FFD59
:10534000B0EE40FAF0EE60FA9FEDBA0B53EC102B82
:1053500051EC1F0B03F0E8FB41EC1E0B53EC182B38
:1053600003F0D0FD53EC1D2BCDE902019DED020BA6
:1053700051EC100B03F024FB41EC1C0B53EC1A2BEB
:1053800003F01EFB41EC1B0BA74890ED000B53EC08
:10539000102B51EC1B0B03F0B5FDCDE904019DED85
:1053A000040BFFF762FD8DED060B9FEDA40B53EC94
:1053B000102B9DED060B51EC100B03F0A1FEA2D3B8
:1053C0009FED9C0BFFF75BFDB0EE40FAF0EE60FA4C
:1053D0009FED980B53EC102B51EC1F0B03F0A4FB2B
:1053E00041EC1E0B53EC192B03F08CFD41EC1D0B13
:1053F0009FED900BFFF743FDB0EE40FAF0EE60FA40
:1054000051EC1F0B03F0D0FA9FED8A0B53EC102BDD
:10541000CDE900019DED000B51EC100B03F084FB76
:1054200041EC1E0B53EC182B03F06CFD53EC1D2BC1
:10543000CDE902019DED020B51EC100B03F0C0FA17
:1054400041EC1C0B53EC1A2B03F0BAFA41EC1B0B8A
:10545000754890ED000B53EC102B51EC1B0B03F037
:1054600051FDCDE904019DED040BFFF7FEFC8DED30
:10547000060B9FED720B53EC102B9DED060B51ECC0
:10548000100B03F03DFE9AD39FED6A0BFFF7F7FC7C
:10549000B0EE40EAF0EE60EA9FED660B53EC102BA5
:1054A00051EC1E0B03F040FB41EC1D0B53EC192B90
:1054B00003F028FD41EC1B0B9FED5E0BFFF7DFFCBB
:1054C000B0EE40FAF0EE60FA51EC1F0B03F06CFA0C
:1054D00041EC1E0B9FED570B53EC102B03F024FBFC
:1054E00041EC1D0B53EC182B03F00CFD41EC1C0B95
:1054F00053EC1B2B03F012FF53EC1A2BCDE90001E8
:105500009DED000B51EC100B03F05AFACDE90201AE
:10551000454890ED000B53EC102B9DED020B51EC28
:10552000100B03F0EFFCCDE904019DED040BFFF738
:105530009CFC8DED060B9FED410B53EC102B9DED6C
:10554000060B51EC100B03F0DBFD9CD39FED390BE8
:10555000FFF795FCB0EE40FAF0EE60FA9FED350BE8
:1055600053EC102B51EC1F0B03F0DEFA41EC1E0B39
:1055700053EC192B03F0C6FC41EC1D0B9FED2D0BDA
:10558000FFF77DFCB0EE40FAF0EE60FA9FED290BDC
:1055900053EC102B51EC1F0B03F0C6FA41EC1E0B21
:1055A00053EC182B03F0AEFC53EC1D2BCDE9060198
:1055B0009DED060B51EC100B03F0B0FE41EC1C0B03
:1055C00053EC1A2B03F0FCF941EC1B0B164890ED41
:1055D000000B53EC102B51EC1B0B03F093FC194AFE
:1055E000C2E902019FED130BFFF749FCB0EE40FA50
:1055F000F0EE60FA9FED0F0B53EC102B51EC1F0BEC
:1056000003F092FA41EC1E0B53EC192B03F07AFCD9
:1056100041EC1C0B9FED070BFFF731FCB0EE40FA9D
:10562000F0EE60FA10E00000900000205C8FC2F500
:10563000285CEF3F00000000000000400000000078
:1056400000FFBF40180A00201FED060B53EC102B83
:1056500051EC1F0B03F068FA41EC1E0B53EC182BB6
:1056600003F050FC41EC1D0B53EC1C2B03F0A8F98C
:1056700053EC1A2BCDE906019DED060B51EC100BF6
:1056800003F09EF941EC1B0B5A4890ED000B53ECD4
:10569000102B51EC1B0B03F035FC574AC2E90E01ED
:1056A0001FED1C0BFFF7EBFBB0EE40FAF0EE60FADB
:1056B0001FED200B53EC102B51EC1F0B03F034FAB1
:1056C00041EC1E0B53EC192B03F01CFC41EC1C0BA2
:1056D0001FED280BFFF7D3FB8DED040B9DED040BA5
:1056E00051EC100B03F060F941EC1F0B1FED2F0B79
:1056F00053EC102B03F018FA41EC1E0B53EC182B53
:1057000003F000FC41EC1D0B53EC1C2B03F058F98B
:1057100041EC1B0B53EC1A2B03F052F9CDE90601B7
:10572000344890ED000B53EC102B9DED060B51EC23
:10573000100B03F0E7FB304AC2E91A011FED430BDF
:10574000FFF79DFBB0EE40FAF0EE60FA1FED470B5D
:1057500053EC102B51EC1F0B03F0E6F941EC1E0B40
:1057600053EC192B03F0CEFB1FED4E0BCDE90601D8
:10577000FFF785FBB0EE40FAF0EE60FA51EC1F0B3C
:1057800003F012F941EC1E0B1FED560B53EC102BDE
:1057900003F0CAF953EC182BCDE904019DED040B7D
:1057A00051EC100B03F0AEFB41EC1D0B9DED060B15
:1057B00053EC102B03F0B2FD41EC1C0B53EC1A2BF5
:1057C00003F0FEF841EC1B0B0A4890ED000B53EC84
:1057D000102B51EC1B0B03F095FB074A983203C2C8
:1057E0009FED060B034880ED000B09B0BDEC108B5C
:1057F00000BD000090000020180A002000000000FA
:105800000000F03F0146024800EB01107047000025
:10581000900100200146024800EB01107047000093
:105820001002002010B5FE490968B1F9020003F02A
:1058300002FBFC4A03C2FA490968088803F012FB1C
:10584000F84AC2E90601F6490968B1F9080003F00F
:10585000F2FAF44AC2E90801F1490968C86803F09C
:10586000EAFAF04AC2E90A01ED494968B1F90200D1
:1058700003F0E1FAEB4AC2E90C01E94949680888FA
:1058800003F0F0FAE74AC2E91201E5494968B1F9C3
:10589000080003F0D0FAE34AC2E91401E04949687C
:1058A000C86803F0C8FADF4AC2E91601DC49896812
:1058B000B1F9020003F0BFFADA4AC2E91801D84987
:1058C0008968088803F0CEFAD64AC2E91E01D44995
:1058D0008968B1F9080003F0AEFAD24A803203C2F7
:1058E000CF498968C86803F0A6FACE4A883203C255
:1058F000CB49C968B1F9020003F09DFAC94A903258
:1059000003C2C749C968088803F0ACFAC54AA8327F
:1059100003C2C349C968B1F9080003F08CFAC14A4F
:10592000B03203C2BE49C968C86803F084FABD4AF0
:10593000B83203C2BA490969B1F9020003F07BFA2F
:10594000B84A02F5347203C2B5490969088803F000
:1059500089FAB44A02F53A7203C2B1490969B1F948
:10596000080003F068FAAF4A02F53C7203C2AC4982
:105970000969C86803F05FFAAA4A02F53E7203C2D9
:10598000A7494969B1F9020003F055FAA54AC032A6
:1059900003C2A3494969088803F064FAA14AD832CE
:1059A00003C29F494969B1F9080003F044FA9D4ACE
:1059B000E03203C29A494969C86803F03CFA994A3F
:1059C000E83203C296498969B1F9020003F033FA5B
:1059D000944AF03203C292498969088803F042FA76
:1059E000904A02F5847203C28D498969B1F90800B1
:1059F00003F021FA8B4A02F5887203C2884989694B
:105A0000C86803F018FA874A02F58C7203C2844909
:105A1000C969B1F9020003F00EFA824A02F59072E8
:105A200003C27F49C969088803F01CFA7D4A02F560
:105A30009C7203C27A49C969B1F9080003F0FBF905
:105A4000784A02F5A07203C27549C969C86803F0B3
:105A5000F2F9744A02F5A47203C273490968B1F9F4
:105A6000020003F0E8F96F4A02F5A87203C26E491A
:105A70000968088803F0F6F96A4A02F5B47203C2AD
:105A800069490968B1F9080003F0D5F9654A02F5DA
:105A9000B87203C264490968C86803F0CCF9614A66
:105AA00002F5BC7203C260494968B1F9020003F013
:105AB000C2F95C4A02F5C07203C25B4949680888B2
:105AC00003F0D0F9574A02F5CC7203C2564949682F
:105AD000B1F9080003F0AFF9524A02F5D07203C2DF
