:020000040800F2
:10000000605F0020290300082D450008993C000886
:10001000294500087F060008098900080000000043
:10002000000000000000000000000000690200085D
:100030008F0E000800000000C50200087D7E000849
:100040004303000843030008430300084303000878
:100050004303000843030008430300084303000868
:1000600043030008430300089D0E000843030008F3
:10007000450D000843030008550D00084303000820
:10008000650D0008750D000843030008AD0A00085F
:100090009D0A00084303000843030008A70E000858
:1000A00043030008617F000843030008430300087E
:1000B0004303000843030008430300084303000808
:1000C00043030008430300084303000843030008F8
:1000D0004303000843030008E9880008F988000882
:1000E000910E00084303000843030008430300087F
:1000F00043030008430300084303000843030008C8
:1001000043030008430300084303000843030008B7
:10011000430300084303000843030008717F0008FD
:100120004303000843030008430300084303000897
:10013000430300084303000843030008790B000849
:10014000690B000843030008430300084303000849
:100150004303000843030008430300084303000867
:100160004303000843030008430300084303000857
:100170004303000843030008430300080000000095
:10018000430300084303000800F002F800F05CF8A5
:100190000AA090E8000C82448344AAF10107DA45E2
:1001A00001D100F051F8AFF2090EBAE80F0013F0D8
:1001B000010F18BFFB1A43F001031847A0F200001B
:1001C000C0F200000A444FF0000C10F8013B13F09D
:1001D000070408BF10F8014B1D1108BF10F8015BA0
:1001E000641E05D010F8016B641E01F8016BF9D193
:1001F00013F0080F1EBF10F8014BAD1C0C1B09D1EA
:100200006D1E58BF01F801CBFAD505E014F8016B5B
:1002100001F8016B6D1EF9D59142D6D370470000ED
:100220000023002400250026103A28BF78C1FBD8FF
:10023000520728BF30C148BF0B6070471FB50EF092
:10024000EAFE1FBD10B510BD00F0E4F91146FFF73E
:10025000F5FF0BF033FD00F002FA03B4FFF7F2FFF5
:1002600003BC00F005FA00002C4B19680868B0E8E0
:10027000F04F80F30988BFF36F8F4FF0000080F3D9
:10028000118870470000000008480068006880F38B
:1002900008884FF0000080F3148862B661B6BFF39F
:1002A0004F8FBFF36F8F00DF00BF00BF08ED00E08E
:1002B000DFF80C00016841F470010160704700BF75
:1002C00088ED00E0EFF30980BFF36F8F134B1A68DE
:1002D0001EF0100F08BF20ED108A20E9F04F1060CB
:1002E00009B44FF0500080F31188BFF34F8FBFF374
:1002F0006F8F0DF001F94FF0000080F3118809BCF9
:1003000019680868B0E8F04F1EF0100F08BFB0EC95
:10031000108A80F30988BFF36F8F70474001002077
:10032000EFF30580704700000948804709480047FF
:10033000FEE7FEE7FEE7FEE7FEE7FEE7FEE7FEE795
:10034000FEE7FEE704480549054A064B70470000F2
:100350004D7F00088901000860590020605F00207F
:10036000605B0020605B002053EA020C00F06980B3
:100370002DE9F04B4FF00006002B1FBFB3FA83F5B9
:1003800003FA05F424FA05F65E4012BF1643B2FAEA
:1003900082F502FA05F4C5F120051EBF22FA05FC1C
:1003A00044EA0C04203556EA044C4FEA144418BFC2
:1003B000641C4FF000084FF00009904271EB030CF1
:1003C00039D3002919BFB1FA81F701FA07F6B0FA5B
:1003D00080F700FA07F6C7F120071EBF20FA07FCD6
:1003E00046EA0C062037B6FBF4FCA7EB0507103FE6
:1003F00007F01F0BCBF120060CFA0BFB2CFA06F6CC
:1004000044BFB3460026202FA4BF5E464FF0000B2A
:100410005BEA060C08BF4FF0010B19EB0B09ABFBB5
:10042000027C48EB0608C01B06FB02CC0BFB03CC8E
:1004300071EB0C01C1E70B46024641464846BDE858
:10044000F08B13B54FF000004FF00001AFF30080C8
:10045000BDE81C407047032A40F2308010F0030CC6
:1004600000F0158011F8013BBCF1020F624498BF07
:1004700011F801CB00F8013B38BF11F8013BA2F1A4
:10048000040298BF00F801CB38BF00F8013B11F01F
:10049000030300F06280083AC0F0088051F8043B82
:1004A000083A51F804CBA0E80810F5E7121D5CBF2C
:1004B00051F8043B40F8043BAFF30080D20724BF5F
:1004C00011F8013B11F801CB48BF11F8012B24BFF3
:1004D00000F8013B00F801CB48BF00F8012B704742
:1004E00002F0FF0343EA032242EA024200F069B845
:1004F0004FF0000200B5134694469646203922BFBD
:10050000A0E80C50A0E80C50B1F12001BFF4F7AF07
:10051000090728BFA0E80C5048BF0CC05DF804EBE9
:10052000890028BF40F8042B08BF704748BF20F857
:10053000022B11F0804F18BF00F8012B7047704755
:100540007047704710B500F05DF8006810BD10B539
:10055000044600F057F8046010BD10B5203AC0F012
:100560000B80B1E81850203AA0E81850B1E81850B4
:10057000A0E81850BFF4F5AF5FEA027C24BFB1E8F1
:100580001850A0E8185044BF18C918C0BDE8104062
:100590005FEA827C24BF51F8043B40F8043B08BF6B
:1005A0007047D20728BF31F8023B48BF11F8012B32
:1005B00028BF20F8023B48BF00F8012B70474FF0DE
:1005C00000020429C0F0128010F0030C3FF492AF37
:1005D000CCF1040CBCF1020F18BF00F8012BA8BF2E
:1005E00020F8022BA1EB0C01FFF784BF5FEAC17C6E
:1005F00024BF00F8012B00F8012B48BF00F8012BA5
:1006000070470000004870470059002000487047BC
:10061000005900207546FFF7F9FFAE460500694610
:10062000534620F00700854618B020B5FFF78AFE34
:10063000BDE820404FF000064FF000074FF00008E3
:100640004FF0000B21F00701AC46ACE8C009ACE864
:10065000C009ACE8C009ACE8C0098D46704710B5C8
:100660000446AFF300802046BDE81040FFF7F5BD1B
:1006700001491820ABBEFEE726000200704700BF0C
:10068000FEE7000000B5E5480078AA287DD1E348E0
:10069000407CDD28FAD10F21E048801C00F0CAFA26
:1006A000DF490870DD48407809788842EED1DB48A0
:1006B0008178C07841EA002000B2DA490880D74842
:1006C0000179407941EA002000B2D7490880D34837
:1006D0008179C07941EA002000B2D4490880CF482E
:1006E000017A407A41EA002000B2D1490880CB4823
:1006F000817AC07A41EA002000B2CE490880C7481A
:10070000017B407B41EA002000B2CB490880C5480C
:10071000008800F4004028B1C248B0F90000C74981
:10072000084302E0BF48B0F9000000B2BD490880AC
:10073000BD48008800F4004028B1BB48B0F9000073
:10074000BE49084302E0B848B0F9000000B2B6491B
:100750000880B648008800F4004028B1B348B0F9DA
:100760000000B649084302E0B048B0F9000000B20A
:10077000AE490880AE48008800F4004030B1AC4873
:10078000B0F90000AD49084303E046E1A848B0F9DC
:10079000000000B2A6490880A648008800F4004086
:1007A00028B1A448B0F90000A449084302E0A148D8
:1007B000B0F9000000B29F4908809F48008800F40B
:1007C000004028B19C48B0F900009C49084302E071
:1007D0009948B0F9000000B297490880984800781D
:1007E00000F0010040B98D48807B00F0010018B195
:1007F00001209449087000E000BF9148007800F0A3
:10080000020040B98548807B00F00200022802D136
:100810008C49087000E000BF8948007800F00400AF
:1008200048B97E48807B00F00400042803D10320EF
:100830008449087000E000BF8148007800F008009B
:1008400048B97648807B00F00800082803D10320CF
:100850007D49087000E000BF7948007800F0100082
:1008600048B96E48807B00F01000102803D10420A6
:100870007549087000E000BF7148007800F0200062
:1008800028B96648807B00F02000202800D000BFF7
:100890006B48007800F0400028B96048807B00F089
:1008A0004000402800D000BF6548007800F080007C
:1008B00028B95A48807B00F08000802800D000BF13
:1008C0006248007800F0010050B95448C07B00F045
:1008D000010028B101205E4908705E4908800EE0E1
:1008E0005A48007800F0010048B14C48C07B00F045
:1008F000010020B900205649087056490880534825
:10090000007800F0020040B94448C07B00F00200CB
:10091000022802D14F4908800DE04C48007800F0D1
:100920000200022807D13D48C07B00F0020010B948
:100930000020484908804548007800F0040048B984
:100940003648C07B00F00400042803D1032041494D
:1009500008800DE03D48007800F00400042807D12D
:100960002E48C07B00F0040010B9002039490880EF
:100970003648007800F0080048B92848C07B00F0ED
:100980000800082803D10420324908800DE02F48D0
:10099000007800F00800082807D12048C07B00F04C
:1009A000080010B900202B4908802848007800F082
:1009B000100028B91948C07B00F01000102800D0A2
:1009C00000BF2248007800F0200028B91348C07BFF
:1009D00000F02000202800D000BF1C48007800F064
:1009E000400028B90D48C07B00F04000402800D0EE
:1009F00000BF1648007800F0800028B90748C07B87
:100A000000F08000802800D000BF0448807B0C49A3
:100A100008700248C07B0D49087000BD080700201F
:100A20004E00002040000020420000204400002032
:100A300046000020480000204A0000200000FFFF80
:100A40004C00002050000020080100204D00002034
:100A5000C1010020C40100200F200E4908700020B1
:100A600011E00D4951F820104988C1F307224100D7
:100A7000491C084B5A54084951F820108A78410003
:100A8000891C5A54401C0428EBDBAA2001494872F7
:100A900070470000F45800209805002010B5024867
:100AA00000F025FC10BD00006808002010B50248C9
:100AB00000F01DFC10BD0000680800202DE9F84F73
:100AC00004460D4616461F46DDE90CABDDE90A89F2
:100AD0004FF400701F49086000208860C86008203B
:100AE0000861200A1C4908704C70280A8870CD7073
:100AF000300A08714E71380A8871CF716B460A4608
:100B00001449164800F0F0F940F2FF10144908604B
:100B100000208860C860082008614FEA1820114949
:100B2000087081F801804FEA1920887081F80390DD
:100B30004FEA1A20087181F805A04FEA1B2088713E
:100B400081F807B06B460A460549044800F0CCF925
:100B5000BDE8F88FD80500200000002068080020BC
:100B6000080600201000002010B5024800F0BFFB6E
:100B700010BD00009008002010B5024800F0B7FB3F
:100B800010BD0000900800202DE9F84F04460D46E6
:100B900016461F46DDE90CABDDE90A894FF400700B
:100BA0001F49086000208860C86008200861200A8A
:100BB0001C4908704C70280A8870CD70300A087182
:100BC0004E71380A8871CF716B460A46144916482F
:100BD00000F08AF940F2FF10144908600020886094
:100BE000C860082008614FEA18201149087081F890
:100BF00001804FEA1920887081F803904FEA1A208B
:100C0000087181F805A04FEA1B20887181F807B0B0
:100C10006B460A460549044800F066F9BDE8F88FBE
:100C2000F005002008000020900800202006002089
:100C30001800002010B502460123002002E0145CD9
:100C40006340401C8842FADB184610BD0A7822B97E
:100C500001220A7002224A7065E04A78012A02D015
:100C6000022A40D11EE0DFED300AB4EEE00AF1EED8
:100C700010FA06D803224A70FFEE000AC0ED000AFF
:100C80000FE0DFED2A0AB4EEE00AF1EE10FA08D226
:100C9000DFED250AB4EEE00AF1EE10FA01DD0222E2
:100CA0004A703FE0DFED210AB4EEE00AF1EE10FAFF
:100CB00006DB01224A70F7EE000AC0ED000A11E0DF
:100CC000DFED190AB4EEE00AF1EE10FA06D80322BD
:100CD0004A70FFEE000AC0ED000A03E0DFED140ADF
:100CE000C0ED000A1EE0DFED110AB4EEE00AF1EEFD
:100CF00010FA06DB01224A70F7EE000AC0ED000A86
:100D00000FE0DFED0A0AB4EEE00AF1EE10FA08D2C5
:100D1000DFED050AB4EEE00AF1EE10FA01DD022281
:100D20004A7000BF00BF704700409CC500409C4512
:100D3000000000009FED020A80ED000A70470000ED
:100D40000000000010B5024800F0FAFE10BD0000DF
:100D5000EC0A002010B5024800F0F2FE10BD0000C1
:100D60004C0B002010B5024800F0EAFE10BD000058
:100D70002C0A002010B5024800F0E2FE10BD000071
:100D80008C0A00200146087810381823B0FBF3F2D3
:100D90000848805CC865032A05D908686FF3090014
:100DA000001D886503E008686FF309008865886D99
:100DB00070470000BCF10008014600208A6A8B6978
:100DC000CBB932B1012A0DD0022A03D0032A10D1A7
:100DD0000EE000BFCB6A03F08073B3F1807F00D1D7
:100DE000012007E0CB6AB3F1C07F00D1012001E010
:100DF00000E000BF34E08B69B3F5005F1AD132B177
:100E0000012A07D0022A03D0032A11D10AE000BF29
:100E100001200EE0CB6A03F08073B3F1807F00D134
:100E2000012006E0CB6AB3F1C07F00D1012000E0D1
:100E300000BF15E032B1012A05D0022A04D0032AEE
:100E40000CD103E000BF00BF012008E0CB6A03F033
:100E50008073B3F1807F00D1012000E000BF00BFAC
:100E6000704730B50468246824F4802405682C6039
:100E7000046863608468402C04D10468A26004683C
:100E8000E16003E00468A1600468E26030BD70477F
:100E900010B54FF4805001F049F810BD10B5102086
:100EA00001F044F810BD10B5402001F03FF84FF4B8
:100EB000807001F03BF810BD72B600BFFEE710B5C0
:100EC000024692F82030012B01D0022B06D1106887
:100ED0004069084314686061002010BD506A40F406
:100EE000802050620120F8E7F0B504460D461E460A
:100EF00094F8207020688368A86800B900E000BFFB
:100F0000012F01D0022F7DD103F0806030B903F0B2
:100F1000006018B903F0805000287ED0C3F301614F
:100F2000012088403060A86860B9B5F800C0E86862
:100F300040EA4C5C206800F5C07000EB0110C0F87E
:100F400000C00FE0D5E901C040EACC00D5F80CC0E4
:100F500040EA0C00D4F800C00CF5C07C0CEB011C7E
:100F6000CCF80000D5F810C0206800F5C07000EB88
:100F70000110C0F804C0287D01280ED1206800F5BA
:100F8000C07000EB0110406840F4807C206800F5E0
:100F9000C07000EB0110C0F804C0D079000692F8D0
:100FA00006C040EA0C4092F805C040EA0C2092F8D6
:100FB00004C040EA0C00D4F800C00CF5C07C0CEB77
:100FC000011CCCF80C00D078000692F802C040EA70
:100FD0000C4092F801C040EA0C2092F800C040EAB0
:100FE0000C00D4F800C00CF5C07C0CEB011CCCF854
:100FF0000800206800F5C07000EB0110006840F0A8
:10100000010C01E00FE008E0206800F5C07000EB83
:101010000110C0F800C00020F0BD606A40F400106C
:1010200060620120F8E7606A40F48020606201207D
:10103000F2E70000F0B504460A46216894F8205013
:10104000012D01D0022D7ED1424901F500710868C1
:1010500040F001000860086820F47C5008600868CF
:10106000566A40EA06200860107D00F01F06012045
:1010700000FA06F3C8699843C861A1F50071D06908
:10108000C8B9D1F80C029843C1F80C02908880B21C
:10109000968940EA064601F51070576940F83760B6
:1010A000108880B2168940EA064601F5107057692B
:1010B00000EBC7004660D069012819D1D1F80C02B5
:1010C0001843C1F80C02908880B2168840EA0646A0
:1010D00001F51070576940F83760908980B2168921
:1010E00040EA064601F51070576900EBC7004660FC
:1010F000906928B9D1F804029843C1F8040204E0C9
:10110000D1F804021843C1F80402106928B9D1F8D3
:1011100014029843C1F8140204E0D1F814021843F1
:10112000C1F81402106A012804D1D1F81C02184336
:10113000C1F81C02D1F8000220F00100C1F8000241
:101140000020F0BDFFE7606A40F48020606201206B
:10115000F7E7000000640040704770B5044694F85B
:101160002050012D01D0022D7DD151B92068C068D9
:1011700000F0030080B9606A40F400106062012052
:1011800070BD2068006900F0030028B9606A40F46F
:10119000001060620120F3E7206800F5D87000EBD2
:1011A0000110006800F004009060906840B9206869
:1011B00000F5D87000EB01100068400D106007E0EA
:1011C000206800F5D87000EB01100068C00850607E
:1011D000206800F5D87000EB0110006800F00200F4
:1011E000D060206800F5D87000EB0110406800F076
:1011F0000F00082802D30820106108E0206800F5DD
:10120000D87000EB0110406800F00F0010612068FA
:1012100000F5D87000EB0110406800F47F40000A30
:101220009061206800F5D87000EB01104068000C58
:101230005061206800F5D87000EB011080681870CC
:10124000206800F5D87000EB0110806800F47F4042
:10125000000A5870206800F5D87000EB0110806813
:1012600000F47F0000E03CE0000C9870206800F57E
:10127000D87000EB01108068000ED870206800F56F
:10128000D87000EB0110C0681871206800F5D870A4
:1012900000EB0110C06800F47F40000A587120681C
:1012A00000F5D87000EB0110C06800F47F00000C5E
:1012B0009871206800F5D87000EB0110C068000E2E
:1012C000D87131B92068C06840F020002668F0600D
:1012D00005E02068006940F02000266830610020A9
:1012E0004EE7606A40F480206062012048E72DE903
:1012F000F05F04460025206846692068D0F8049015
:10130000206887682068D0F80CA02068D0F810B05A
:101310002068D0F8188006F00100002855D007F0AA
:101320000100C0B101202168886007F0020018B1F7
:10133000204600F094FB0EE007F0040010B145F4E5
:10134000006508E007F0080010B145F4805502E0A0
:10135000204600F083FB07F48070C8B14FF4807022
:101360002168886007F4007018B1204600F079FB0E
:101370000EE007F4806010B145F4005508E007F472
:10138000006010B145F4804502E0204600F068FBA3
:1013900007F48030C8B14FF480302168886007F4CA
:1013A000003018B1204600F05EFB0EE007F480200C
:1013B00010B145F4004508E007F4002010B145F4F1
:1013C000803502E0204600F04DFB06F0080038B101
:1013D0000AF0100020B145F4007510202168C860A3
:1013E00006F0040040B10AF0080028B10820216886
:1013F000C860204600F01CFA06F0020038B12068F0
:10140000C06800F0030010B1204600F013FA06F0A7
:10141000400038B10BF0100020B145F48065102079
:101420002168086106F0200040B10BF0080028B1E7
:10143000082021680861204600F0DEFA06F010005E
:1014400038B12068006900F0030010B1204600F0B8
:10145000D4FA06F4003040B109F0100028B1102091
:1014600021684860204600F0C9FA06F4803040B197
:1014700009F0080028B1082021684860204600F0E3
:10148000F3FA06F4004088B309F0040078B306F4D8
:10149000807020B108F0010008B145F0010506F4A4
:1014A000007020B108F0020008B145F0020506F412
:1014B000806020B108F0040008B145F0040506F48E
:1014C0000060A0B108F0700088B108F070004028FA
:1014D00017D006DC10280BD020280CD0302819D1CA
:1014E0000CE0502810D0602814D110E01DE019E065
:1014F00045F008050FE045F010050CE045F020052B
:1015000009E045F0400506E045F0800503E045F4BC
:10151000807500E000BF00BF2068806920F0700087
:10152000216888610420216848602DB1606A2843E1
:1015300060622046FFF710FEBDE8F09F70B50446DC
:101540000CB9012070BD94F8200010B9204600F0BD
:10155000AFF82068006840F001002168086000F0E2
:10156000EDFD05460DE000F0E9FD401B0A2808D915
:10157000606A40F400306062052084F82000012099
:10158000E0E72068406800F001000028EBD0206808
:10159000006820F002002168086000F0CFFD0546D9
:1015A0000DE000F0CBFD401B0A2808D9606A40F42A
:1015B00000306062052084F820000120C2E7206826
:1015C000406800F002000028EBD1207E012806D1FF
:1015D0002068006840F080002168086005E020680D
:1015E000006820F0800021680860607E012806D134
:1015F0002068006840F040002168086005E020682D
:10160000006820F0400021680860A07E012806D113
:101610002068006840F020002168086005E020682C
:10162000006820F0200021680860E07E012806D1D3
:101630002068006820F010002168086005E020683C
:10164000006840F0100021680860207F012806D162
:101650002068006840F008002168086005E0206804
:10166000006820F0080021680860607F012806D12A
:101670002068006840F004002168086005E02068E8
:10168000006820F0040021680860D4E902010843E2
:1016900021690843616908436168491E084321685C
:1016A000C86100206062012084F82000002049E722
:1016B00010B586B00446142101A8FEF719FF56495B
:1016C0002068884249D155480068401C5349086049
:1016D0000846006801280FD100BF00200090504844
:1016E000006840F000704E4908600846006800F04D
:1016F0000070009000BF00BF00BF0020009048486D
:101700001038006840F00800454910390860084664
:10171000006800F00800009000BF00BF03200190A7
:1017200002200290002003900320049009200590DD
:1017300001A93C4800F008FC00220521132000F01C
:10174000FBFD132000F0E4FD00220521142000F031
:10175000F3FD142000F0DCFD5CE033492068884292
:1017600058D100BF002000902D48006840F08060F4
:101770002B4908600846006800F08060009000BFB8
:1017800000BF26480068401C2449086008460068DD
:1017900001280FD100BF002000902148006840F0D0
:1017A00000701F4908600846006800F00070009053
:1017B00000BF00BF00BF002000901948103800682B
:1017C00040F002001649103908600846006800F031
:1017D0000200009000BF00BF602001900220029034
:1017E00000200390032004900920059001A90F48D0
:1017F00000F0AAFB002205213F2000F09DFD3F20C4
:1018000000F086FD00220521402000F095FD4020DB
:1018100000F07EFD06B010BD006400402C010020E9
:1018200040380240000C02400068004000040240C2
:101830007047000010B58AB004466948844264D1FC
:1018400001AB03AA00212046FFF787FC0398A0F212
:101850000120082852D2DFE800F004050607080935
:101860000A0B00BF00BF00BF00BF00BF00BF00BF2A
:101870000398401E5B4908705B48097800EB011033
:10188000008800B25849574A127801EB02110881CA
:101890009DF805009DF8041040EA01205249514A84
:1018A000127801EB021108809DF807009DF80610E0
:1018B00040EA012000B24C494A4A127801EB021179
:1018C00048809DF809009DF8081040EA012000B208
:1018D0004549444A127801EB021188809DF80A10AC
:1018E0004148404A127800EB021081713E493D4A5E
:1018F000127801EB021009F013F900E000BF00BFFD
:1019000002213748FFF7DBFA00BF3848844264D130
:1019100001AB03AA00212046FFF71FFC0398A0F2A9
:101920000120082852D2DFE800F004050607080964
:101930000A0B00BF00BF00BF00BF00BF00BF00BF59
:101940000398401E2A4908702A48097800EB0110C4
:10195000008801B22748264A127800EB0210018164
:101960009DF805009DF8041040EA01212148204A15
:10197000127800EB021001809DF807009DF8061018
:1019800040EA012000B21B49194A127801EB02110A
:1019900048809DF809009DF8081040EA012001B236
:1019A0001448134A127800EB021081809DF80A1047
:1019B00010480F4A127800EB021081710D490C4A51
:1019C000127801EB021009F0ABF800E000BF00BF95
:1019D00002210648FFF773FA00BF0AB010BD0000ED
:1019E00068080020200000209804002090080020B3
:1019F000210000201805002070477047704770B51F
:101A0000044694F82000012822D1022084F8200006
:101A10002068006820F001002168086000F08EFB5B
:101A200005460DE000F08AFB401B0A2808D9606AD1
:101A300040F400306062052084F82000012070BD71
:101A40002068406800F001000028EBD16062F6E7F2
:101A5000606A40F4002060620120F0E77047704740
:101A60007047704770477047704770B50446A56D62
:101A700000F064FB064694F83500022808D0802068
:101A8000606500BF002084F8340000BF012070BDF5
:101A90002068006820F0160021680860206840690E
:101AA00020F0800021684861206C08B9A06C28B142
:101AB0002068006820F0080021680860206800683D
:101AC00020F001002168086010E000F037FB801B67
:101AD00005280BD920206065032084F8350000BF5D
:101AE000002084F8340000BF0320D0E7206800689D
:101AF00000F001000028E8D194F85C103F208840F5
:101B0000A860012084F8350000BF002084F834006C
:101B100000BF00BFBBE7014691F83500022803D0A3
:101B20008020486501207047052081F8350008684D
:101B3000006820F001000A6810600020F3E7000050
:101B4000F8B50446002000908C4800684FF4165108
:101B5000B0FBF1F7A56D2E6894F85C100820884062
:101B6000304098B12068006800F0040070B120682F
:101B7000006820F004002168086094F85C100820D8
:101B80008840A860606D40F00100606594F85C10CA
:101B900001208840304068B12068406900F0800032
:101BA00040B194F85C1001208840A860606D40F05E
:101BB0000200606594F85C1004208840304068B1F1
:101BC0002068006800F0020040B194F85C10042026
:101BD0008840A860606D40F00400606594F85C1077
:101BE00010208840304078B32068006800F008007A
:101BF00050B394F85C1010208840A86020680068FA
:101C000000F4802080B12068006800F4002028B92A
:101C1000206CC8B12046216C884715E0A06C98B1B3
:101C20002046A16C88470FE02068006800F48070AF
:101C300028B92068006820F0080021680860206C3E
:101C400010B12046216C884794F85C102020884011
:101C50003040002865D02068006800F0100000289F
:101C60005FD094F85C1020208840A86094F835007C
:101C7000052828D12068006820F016002168086037
:101C80002068406920F0800021684861206C08B914
:101C9000A06C28B12068006820F008002168086066
:101CA00094F85C103F208840A860012084F835003B
:101CB00000BF002084F8340000BF206D10B1204622
:101CC000216D8847F8BD2068006800F4802080B14D
:101CD0002068006800F4002028B9606C10B120462C
:101CE000616C88471DE0E06BD8B12046E16B884706
:101CF00017E02068006800F4807068B92068006808
:101D000020F0100021680860012084F8350000BF31
:101D1000002084F8340000BFE06B10B12046E16B76
:101D20008847606D38B3606D00F00100F0B10520A8
:101D300084F835002068006820F001002168086000
:101D400000BF0098401C0090B84200D905E0206810
:101D5000006800F001000028F3D100BF012084F8E2
:101D6000350000BF002084F8340000BFE06C10B1E3
:101D70002046E16C884700BFA4E700003C0100203A
:101D80002DE9F0410446002500F0D8F9074614B9C2
:101D90000120BDE8F081606A00B100BF022084F834
:101DA000350000BF002084F8340000BF20680068C0
:101DB00020F00100216808600AE000F0BFF9C01BB4
:101DC000052805D920206065032084F83500E0E768
:101DD0002068006800F001000028EED12068056846
:101DE00021480540D4E901010843E168084321691D
:101DF000084361690843A1690843E1690843216A0E
:101E000008430543606A042803D1D4E90B01084361
:101E10000543206805602068456925F00705606A6C
:101E20000543606A04280DD1A06A0543E06A48B101
:101E30002046FEF7C1FF28B140206065012084F8EC
:101E40003500A6E7206845612046FEF79BFF064661
:101E500094F85C103F208840B0600020606501204D
:101E600084F83500002094E73F8010F02DE9F0471A
:101E700004460D4616461F464FF00008D4F8589009
:101E800000BF94F83400012802D10220BDE8F08799
:101E9000012084F8340000BF94F83500012825D1D2
:101EA000022084F83500002060653B463246294612
:101EB0002046FEF7D6FF94F85C103F208840C9F812
:101EC00008002068006840F0160021680860206C57
:101ED00028B12068006840F0080021680860206888
:101EE000006840F001002168086006E000BF0020A3
:101EF00084F8340000BF4FF002084046C6E70000F7
:101F000070B5044600F01AF906462546681C10B163
:101F100004480078054400BF00F010F9801BA84277
:101F2000FAD370BD380100207047000010B5044698
:101F300004480068204020B1024804602046FFF7B2
:101F4000F3FF10BD143C0140F8B502460B460025D6
:101F5000002400200021D6E0012606FA01F51E68C3
:101F600006EA0504AC4274D11E7906F00306012E80
:101F700004D01E7906F00306022E13D190684F009C
:101F80000326BE40B0434F00DE68BE403043906041
:101F9000506801268E40B0431E79C6F300168E406D
:101FA000304350601E7906F00306032E09D0D06836
:101FB0004F000326BE40B0434F009E68BE403043F2
:101FC000D0601E7906F00306022E13D1CF0802F16D
:101FD000200656F827004E07F70E0F26BE40B043E6
:101FE0004F07FF0E1E69BE403043CF0802F12006A6
:101FF00046F8270010684F000326BE40B0431E7904
:1020000006F003064F00BE40304310605E6806F4E1
:102010004036002E76D000BF002600963C4E366833
:1020200046F480463A4F3E603E46366806F48046A7
:10203000009600BF00BF374E8F0856F827008E0766
:10204000370F0F26BE40B043334EB24202D10026B6
:1020500024E057E0314EB24201D101261EE0304E5D
:10206000B24201D1022619E02E4EB24201D103261E
:1020700014E02D4EB24201D104260FE02B4EB242A5
:1020800001D105260AE02A4EB24201D1062605E01A
:10209000284EB24201D1072600E008268F073F0FE5
:1020A000BE4030431B4E8F0846F82700224E306852
:1020B000A0435E6806F4801606B120431E4E3060D1
:1020C000361D3068A0435E6806F4001606B1204352
:1020D000194E361D3060184E361F3068A0435E68BA
:1020E00006F4003606B12043134E361F3060361F0B
:1020F0003068A0435E6806F4803606B120430E4E79
:10210000083E3060491C1029FFF426AFF8BD0000DE
:1021100044380240083801400000024000040240F8
:1021200000080240000C024000100240001402406F
:1021300000180240001C0240083C014001480068B1
:10214000704700003001002070B504460CB9012032
:1021500070BD4CF6CC402168086045F255502168AE
:102160000860D4E9001048602168A0688860FFF723
:10217000E5FF05460BE0FFF7E1FF401B312806D9DC
:102180002068C06800F0030008B10320E0E7206881
:10219000C06800F003000028EDD14AF6AA202168AB
:1021A00008600020D4E701464AF6AA200A681060B9
:1021B0000020704703480068034909780844014932
:1021C00008607047300100203801002010B50D482C
:1021D000006840F400700B4908600846006840F44D
:1021E000806008600846006840F480700860032042
:1021F00000F0E0F80F2000F007F800F05FF8002092
:1022000010BD0000003C02402DE9F04188B00446BA
:102210000027B84600BF002001902348006840F026
:102220002000214908600846006800F02000019065
:1022300000BF00BF02A903A800F092F9069F1FB9D2
:1022400000F0B6F9054602E000F0B2F94500174883
:10225000B5FBF0F0A0F1010815481649086040F2FE
:10226000E7311448C160C0F8048000210161816039
:10227000816100F0BFFC064696B90E4800F012FDE1
:1022800006466EB9372000F043F8102C07D2002222
:102290002146372000F050F80748046000E001268E
:1022A000304608B0BDE8F0814038024040420F009F
:1022B00000140040AC0B00203401002008B500BF22
:1022C000002000901148006840F480400F490860E9
:1022D0000846006800F48040009000BF00BF00BFC7
:1022E00000200090081F006840F08050091F08601F
:1022F0000846006800F08050009000BF00BF002238
:102300000F21901E00F018F808BD0000443802406C
:102310000146084600280DDB00BF00BF00F01F0388
:1023200001229A4043099B0003F1E023C3F80021F6
:1023300000BF00BF00BF70472DE9F05F80460D462B
:102340001646002706F0FAFA074639462A4633466B
:1023500001F00700C0F1070ABAF1040F02D94FF0EB
:10236000040A01E0C0F1070AD14600F1040ABAF1FB
:10237000070F02D24FF0000A01E0A0F1030AD44691
:102380004FF0010A0AFA09FAAAF1010A0AEA020A56
:102390000AFA0CFA4FF0010B0BFA0CFBABF1010B34
:1023A0000BEA030B4AEA0B042146404606F0CEFA3C
:1023B000BDE8F09F00BF00F00702064B19684FF61A
:1023C000FF031940044B0B4343EA0221014B196000
:1023D00000BF70470CED00E00000FA0570B5044640
:1023E0000D460CB9012070BD5848006800F0070088
:1023F000A84209D255490D700846006800F0070050
:10240000A84201D00120EEE7207800F00200022867
:102410001DD1207800F00400042805D14C48006844
:1024200040F4E0504A490860207800F0080008288D
:1024300005D14748006840F4604045490860444879
:10244000006820F0F000A168084341490860207846
:1024500000F00100A8B36068012807D13C480838A3
:102460000068C0F34040B8B90120BCE760680228AA
:1024700002D06068032807D1354808380068C0F3E7
:10248000406048B90120AEE7314808380068C0F321
:10249000400008B90120A6E72D48006820F003009D
:1024A000616808432A490860FFF748FE064609E0CC
:1024B000FFF744FE801B41F28831884202D9032095
:1024C00091E707E02248006800F00C006168B0EB7B
:1024D000810FEDD11D48006800F00700A84209D91E
:1024E0001A490D700846006800F00700A84201D0A4
:1024F000012078E7207800F00400042807D1144870
:10250000006820F4E050E168084311490860207831
:1025100000F00800082808D10D48006820F4604049
:10252000216940EAC1000A49086000F061F80849E1
:102530000968C1F30311074A515CC84006490860A5
:1025400006480068FFF760FE00204CE7003C0240B0
:1025500008380240C4F100083C010020340100208A
:102560000F2202600D4A126802F0030242600B4A19
:10257000126802F0F0028260084A126802F4E05227
:10258000C260064A126802F46042D2080261044A3C
:10259000126802F007020A60704700000838024023
:1025A000003C024001480068704700003C010020E8
:1025B00000B5FFF7F7FF04490968C1F38221034A18
:1025C000515CC84000BD000008380240D4F100084A
:1025D00000B5FFF7E7FF04490968C1F34231034A38
:1025E000515CC84000BD000008380240D4F100082A
:1025F0002DE9F047002400250026A1462548006863
:1026000000F00C0020B1042805D008283AD105E0DC
:10261000DFF8849039E0DFF8849036E01D48001F31
:10262000006800F03F041B48001F006800F48000B1
:1026300078B11A481749091F0968C1F38811A0FB2E
:1026400001700146224600233846FDF78DFE0546FF
:102650000EE011480F49091F0968C1F38811A0FB5A
:1026600001700146224600233846FDF77DFE0546EF
:102670000848001F0068C0F30140401C4600B5FB3D
:10268000F6F902E0DFF8109000BF00BF4846BDE851
:10269000F0870000083802400024F40000127A009D
:1026A000F8B504460CB90120F8BD207800F001000F
:1026B000002874D0F948006800F00C0004280DD000
:1026C000F648006800F00C00082813D1F348001FFA
:1026D000006800F48000B0F5800F0BD1EF48083897
:1026E0000068C0F34040002859D06068002856D1E7
:1026F0000120D9E700BF6068B0F5803F08D1E74806
:102700000838006840F48030E449083908601EE069
:102710006068B0F5A02F0DD1E0480838006840F49B
:102720008020DE49083908600846006840F480309F
:1027300008600CE0D9480838006820F48030D74998
:10274000083908600846006820F48020086000BF4F
:10275000606890B1FFF7F2FC054606E0FFF7EEFC7B
:10276000401B642801D903209EE7CC480838006844
:10277000C0F340400028F1D011E0FFF7DFFC054630
:1027800006E0FFF7DBFC401B642801D903208BE740
:10279000C24808380068C0F340400028F1D12078D2
:1027A00000F0020002285FD1BC48006800F00C0075
:1027B00058B1BA48006800F00C0008281CD1B7488E
:1027C000001F006800F48000B0B9B4480838006801
:1027D000C0F3400020B1E068012801D0012063E788
:1027E000AE480838006820F0F800216940EAC100CE
:1027F000AA490839086037E0E06800B30120A84919
:102800000860FFF79BFC054606E0FFF797FC401BBE
:10281000022801D9032047E7A04808380068C0F320
:1028200040000028F1D09D480838006820F0F800EA
:10283000216940EAC10099490839086014E0002084
:1028400097490860FFF77AFC054606E0FFF776FC3B
:10285000401B022801D9032026E790480838006869
:10286000C0F340000028F1D1207800F008000828CB
:102870002CD16069A8B101208A490860FFF75EFC8D
:10288000054606E0FFF75AFC401B022801D9032049
:102890000AE782486C300068C0F340000028F1D09D
:1028A00014E000207F490860FFF748FC054606E079
:1028B000FFF744FC401B022801D90320F4E67748C7
:1028C0006C300068C0F340000028F1D1207800F09F
:1028D0000400042870D1002770483830006800F0E8
:1028E000805090B900BF002000906C4838300068DC
:1028F00040F080506949383108600846006800F0AF
:102900008050009000BF00BF01276748006800F4B6
:102910008070B0B96448006840F480706249086013
:10292000FFF70CFC054606E0FFF708FC401B0228F9
:1029300001D90320B8E65C48006800F480700028E4
:10294000F2D000BFA068012808D154486830006860
:1029500040F001005149683108601DE0A068052879
:102960000DD14E486830006840F004004B49683192
:1029700008600846006840F0010008600CE0474825
:102980006830006820F0010044496831086008465A
:10299000006820F00400086000BFA068A8B1FFF73D
:1029A000CDFB054609E0FFF7C9FB401B41F288312A
:1029B000884202D9032077E626E03848683000686C
:1029C000C0F340000028EED013E0FFF7B7FB054648
:1029D00008E0FFF7B3FB401B41F28831884201D980
:1029E000032061E62D4868300068C0F340000028ED
:1029F000EFD1012F07D129483830006820F08050EE
:102A000026493831086000BFA069002845D0234816
:102A1000006800F00C0008285DD0A069022845D1AC
:102A200000201F490866FFF789FB054606E0FFF70F
:102A300085FB401B022801D9032035E617480838DA
:102A40000068C0F340600028F1D1D4E907010843D1
:102A5000616A40EA81110122A06AC2EB500041EA9A
:102A600000412C20005D41EA00600C49091F08600C
:102A700001200B490866FFF761FB054606E0FFF7FA
:102A80005DFB401B022801D903200DE603480838EE
:102A90000068C0F340600028F1D049E008380240E7
:102AA00000004742800E474200700040002021494C
:102AB0000866FFF743FB054606E0FFF73FFB401BB8
:102AC000022801D90320EFE51B480068C0F34060ED
:102AD0000028F2D12CE0A069012800D1E4E51648D5
:102AE000001D0668A069012820D006F48001E06975
:102AF00081421BD106F03F01206A814216D147F680
:102B0000C0703040616AB0EB811F0FD106F44031D4
:102B10000122A06AC2EB5000B1EB004F06D106F0D3
:102B200070612C20005DB1EB006F01D00120BBE58E
:102B30000020B9E500004742003802407047704766
:102B400030B502460B4600BF92F83C00012801D187
:102B5000022030BD012082F83C0000BF022082F834
:102B60003D00106844681068816824F0700418689B
:102B7000044310684460184D1068A8421BD01068C8
:102B8000B0F1804F17D0154D1068A84213D0144DE6
:102B90001068A8420FD0134D1068A8420BD0124DF8
:102BA0001068A84207D0114D1068A84203D0104DFC
:102BB0001068A84205D121F08001586801431068CF
:102BC0008160012082F83D0000BF002082F83C00B7
:102BD00000BF00BFBDE7000000000140000400404E
:102BE00000080040000C004000040140004001408B
:102BF0000018004010B504460CB9012010BD94F82F
:102C00003D0028B9002084F83C00204600F026F85A
:102C1000022084F83D00211D206805F0B1F9012053
:102C200084F8460000BF84F83E0001213F20015592
:102C3000402001554120015500BF00BF012084F80C
:102C4000420043200155442001554520015500BF55
:102C5000012084F83D000020D0E7000038B504468C
:102C60000E492068884217D100BF002000900C4810
:102C7000006840F400300A4908600846006800F423
:102C80000030009000BF00BF002205211920FFF78F
:102C900053FB1920FFF73CFB38BD00000044014006
:102CA00044380240014691F83D00012801D001203E
:102CB0007047022081F83D000868C06840F00100BC
:102CC0000B68D8601A4B086898421BD00868B0F1AE
:102CD000804F17D0174B0868984213D0164B0868DE
:102CE00098420FD0154B086898420BD0144B0868D7
:102CF000984207D0134B0868984203D0124B0868DB
:102D000098420CD10868806800F00702062A0CD0AF
:102D10000868006840F001000B68186005E008686A
:102D2000006840F001000B6818600020C0E7000058
:102D3000000001400004004000080040000C00407A
:102D4000000401400040014000180040704770B589
:102D500004462068C5682068066906F0020002285B
:102D600019D105F00200022815D1401F2168086121
:102D7000012020772068806900F0030018B1204608
:102D8000FFF7E4FF05E0204600F0EEF8204600F0F3
:102D9000D1F90020207706F00400042819D105F0AD
:102DA0000400042815D1C04321680861022020775F
:102DB0002068806900F4407018B12046FFF7C6FF14
:102DC00005E0204600F0D0F8204600F0B3F90020DE
:102DD000207706F00800082819D105F00800082817
:102DE00015D1C04321680861042020772068C0699C
:102DF00000F0030018B12046FFF7A8FF05E02046C9
:102E000000F0B2F8204600F095F90020207706F097
:102E10001000102819D105F01000102815D1C0435A
:102E200021680861082020772068C06900F440709C
:102E300018B12046FFF78AFF05E0204600F094F81D
:102E4000204600F077F90020207706F0010048B115
:102E500005F0010030B16FF00100216808612046E3
:102E600000F0F0F906F08000802809D105F080001C
:102E7000802805D1C043216808612046FFF75EFE27
:102E800006F04000402809D105F04000402805D157
:102E9000C04321680861204600F00EFB06F02000C8
:102EA000202809D105F02000202805D1C043216841
:102EB00008612046FFF743FE70BD000010B586B0E4
:102EC0000446142101A8FDF713FB2249206888421B
:102ED0001CD100BF002000901F48006840F0020095
:102EE0001D4908600846006800F00200009000BF1D
:102EF00000BF022001900290002003900490022065
:102F0000059001A91548FFF71FF820E01449206833
:102F100088421CD100BF002000900F48006840F09C
:102F200001000D4908600846006800F001000090AB
:102F300000BF00BF032001900220029000200390F8
:102F400004900220059001A90648FEF7FDFF06B097
:102F500010BD000000040040303802400004024070
:102F6000000C00400000024070472DE9F04104468B
:102F70000D461646002700BF94F83C00012802D1F8
:102F80000220BDE8F081012084F83C0000BF36B18A
:102F9000042E1BD0082E31D00C2E5ED145E02946E0
:102FA000206805F073F82068806940F00800216807
:102FB00088612068806920F00400216888612068A9
:102FC0008069296908432168886148E029462068AA
:102FD00005F094F82068806940F4006021688861F9
:102FE0002068806920F48060216888612068806999
:102FF000296940EA01202168886130E0294620687B
:1030000005F0BAF82068C06940F008002168C8617E
:103010002068C06920F004002168C8612068C06988
:10302000296908432168C86119E02946206805F02C
:10303000DFF82068C06940F400602168C86120683A
:10304000C06920F480602168C8612068C06929696E
:1030500040EA01202168C86101E0012700BF00BFEC
:1030600000BF002084F83C0000BF384689E710B557
:1030700004460CB9012010BD94F83D0028B9002089
:1030800084F83C00204600F025F8022084F83D003A
:10309000211D206804F074FF012084F8460000BF61
:1030A00084F83E0001213F20015540200155412078
:1030B000015500BF00BF012084F8420043200155A4
:1030C000442001554520015500BF012084F83D00F2
:1030D0000020D0E708B5144A016891420FD100BF23
:1030E000002100911149096841F002010F4A116065
:1030F0001146096801F00201009100BF13E00C4A7B
:10310000016891420FD100BF002100910749096871
:1031100041F00801054A11601146096801F00801F3
:10312000009100BF00BF08BD0004004040380240CD
:10313000000C00407047000070B504460D4615B9FC
:1031400094F83E000BE0042D02D13F20005D06E024
:10315000082D02D14020005D01E04120005D0128E2
:1031600001D0012070BD1DB9022084F83E000EE0A0
:10317000042D03D102213F20015508E0082D03D181
:1031800002214020015502E0022141200155012287
:103190002946206804F068FF23492068884203D04C
:1031A00022492068884201D1012000E0002028B196
:1031B0002068406C40F40040216848641A49206847
:1031C00088421BD02068B0F1804F17D01849206882
:1031D000884213D01749206888420FD016492068CA
:1031E00088420BD011492068884207D013492068D3
:1031F000884203D01249206888420CD12068806838
:1032000000F00706062E0CD02068006840F0010090
:103210002168086005E02068006840F0010021682E
:10322000086000209EE7000000000140000401400B
:103230000004004000080040000C00400040014035
:103240000018004070B52DED068B044683492068B8
:10325000884201D1FEF7AEFF814884427DD10A2227
:103260008049814800F0D0FC09F0E4FD7F4890EDF2
:10327000041BB0EE410AF0EE610A9FED7D1B53EC9A
:10328000112B51EC100B0BF05FFB9FED7B0B53EC04
:10329000102B0BF059FB9FED7A0B53EC102B0BF01E
:1032A00029F9794AC2E90401104690ED041BB0EEF9
:1032B000410AF0EE610A51EC100B0BF02DF8734946
:1032C000C1F8DC007248806890ED030AB8EEC00ACD
:1032D000084680ED3B0A6E488068B0F9020000EEB7
:1032E000100AB8EEC00A084680ED360A68488068C1
:1032F000008800EE100AB8EE400A084680ED390A50
:1033000063488068B0F9080000EE100AB8EEC00A01
:10331000084680ED3A0A90ED3B0ABDEEC00A5C48D3
:10332000806880ED030A514890ED061BB0EE410A1B
:10333000F0EE610A9FED571B53EC112B51EC100B73
:103340000BF002FB9FED4C0B53EC102B0BF0FCFA37
:103350009FED520B53EC102B00E07CE00BF0F4FAE5
:103360009FED500B53EC102B0BF0C4F8464AC2E90A
:103370000601104690ED061BB0EE410AF0EE610A20
:1033800051EC100B0AF0C8FF4049C1F8F400404866
:10339000C06890ED030AB8EEC00A084680ED410A05
:1033A0003B48C068B0F9020000EE100AB8EEC00A4F
:1033B000084680ED3C0A3648C068008800EE100AD6
:1033C000B8EE400A084680ED3F0A3148C068B0F9BF
:1033D000080000EE100AB8EEC00A084680ED400A68
:1033E00090ED410ABDEEC00A2948C06880ED030A8D
:1033F0002748C06800884FF4B47148432B4990FBBC
:10340000F1F02349C968C968C1EB41314518284624
:103410000BF033FA264A03C21D4880680088C0EBCF
:10342000002000EB4010C000224990FBF1F0184949
:103430008968C968C1EB4131451828460BF01DFA6F
:103440001B4AC2E9020107F087F801F059FB08F0B6
:1034500087FD08F0B1FDBDEC068B70BD0014004087
:1034600054090020F45800209C090020480700203F
:1034700000000000000EAC400000000000FFBF4054
:1034800000000000806FF04088070020FC560020FC
:10349000B8050020000000000000424000000000CD
:1034A000000000400000000000807640B8FF0800E7
:1034B00020070020F9D1C0017047704710B50446BD
:1034C0000A492068884207D101220949094800F0C9
:1034D000DDFA00200849087008492068884204D1B4
:1034E00001220749074800F0D1FA10BD004800400A
:1034F00008070020E40900204F000020004400409D
:10350000260000209C0900202DE9F84F0446206881
:1035100005682068C668206847694FF00009CA46F8
:1035200005F00F09B9F1000F0AD105F0200038B1FC
:1035300006F0200020B1204604F0AEFFBDE8F88F71
:10354000B9F1000F7CD007F0010018B906F49070B3
:10355000002875D005F0010030B106F4807018B174
:10356000606C40F00100606405F0040030B107F0C9
:10357000010018B1606C40F00200606405F00200C8
:1035800030B107F0010018B1606C40F004006064D5
:1035900005F0080048B106F0200010B907F001005E
:1035A00018B1606C40F008006064606C002846D080
:1035B00005F0200028B106F0200010B1204604F0EC
:1035C0006BFF20684069C0F3801A606C00F008004F
:1035D00010B9BAF1000F2DD0204604F004FF206886
:1035E000406900F04000402820D100BF00BF2168A2
:1035F000143151E8001F21F040002168143141E8E6
:103600000002002AF3D100BFE06B50B17748E16BB4
:103610000865E06BFEF77FFA88B1E06B016D8847C3
:103620000DE02046FFF74AFF09E009E02046FFF7DA
:1036300045FF04E02046FFF741FF002060647DE77E
:10364000206B012878D105F01000002874D006F016
:1036500010000028FAD000BF002000902068006809
:10366000009020684068009000BF00BF206840695B
:1036700000F04000402860D1E06B006840681FFA0D
:1036800080F8B8F1000F56D0A08D404553DDA4F866
:103690002E80E06BC069B0F5807F43D000BF00BFD3
:1036A00021680C3151E8001F21F4807021680C3131
:1036B00041E80002002AF3D100BF00BF00BF21682B
:1036C000143151E8001F21F001002168143141E854
:1036D0000002002AF3D100BF00BF00BF21681431EF
:1036E00051E8001F21F040002168143141E8000238
:1036F000002AF3D100BF202084F84200002020637C
:1037000000BF00BF21680C3151E8001F21F01000FC
:1037100021680C3141E80002002AF3D100BFE06BC0
:10372000FEF7A3F902206063A08DE28D801A81B2BA
:103730002046FFF7C2FE01E742E0A08DE18D401A6E
:103740001FFA80F8E08DD0B3B8F1000F37D000BF7A
:1037500000BF21680C3151E8001F21F490702168EE
:103760000C3141E80002002AF3D100BF00BF00BFC6
:103770002168143151E8001F21F001002168143143
:1037800041E80002002AF3D100BF202084F8420063
:103790000020206300BF00BF21680C3151E8001FEA
:1037A00021F0100021680C3141E80002002AF3D119
:1037B00000BF0220606341462046FFF77EFEBDE663
:1037C00005F0800030B106F0800018B1204605F009
:1037D0005BF8B3E605F0400030B106F0400018B1E8
:1037E000204604F036FEA9E600BFA7E645820008A1
:1037F00010B504460CB9012010BDA06900B100E06D
:1038000000BF94F8410028B9002084F84000204609
:1038100000F02AF8242084F841002068C06820F4D1
:1038200000502168C860204604F0B4FE206800699A
:1038300020F49040216808612068406920F02A0047
:10384000216848612068C06840F400502168C86061
:1038500000206064202084F8410084F842000020A9
:10386000606300BFC8E7000010B586B004461421AD
:1038700001A8FCF73DFE7B492068884275D100BF56
:10388000002000907848006840F4003076490860D5
:103890000846006800F40030009000BF00BF00BF81
:1038A0000020009070481038006840F008006E4911
:1038B000103908600846006800F00800009000BF5A
:1038C00000BF60200190022002900020039003209E
:1038D00004900720059001A96448FEF735FB644871
:1038E000644908604FF000604860002161488160D1
:1038F000C1604FF480610161002141618161C1615A
:1039000001624162FEF73CFA08B1FDF7D5FA00BF4B
:103910005848E063846300BF554818305649086032
:103920004FF0006048604021534881600021C16031
:103930004FF480610161002141618161C1610162D7
:103940004162FEF71DFA08B1FDF7B6FA00BF4A481A
:10395000A063846300BF002205212620FEF7ECFC53
:103960002620FEF7D5FC7AE0FFE74449206888422C
:1039700075D100BF002000903B48006840F48020D3
:10398000394908600846006800F48020009000BFB4
:1039900000BF00BF0020009033481038006840F09E
:1039A00002003149103908600846006800F0020042
:1039B000009000BF00BF4FF44060019002200290D1
:1039C00000200390032004900720059001A92C48B3
:1039D000FEF7BAFA264860382A4908604FF00060BE
:1039E0004860002127488160C1604FF48061016117
:1039F000002141618161C16101624162FEF7C0F94C
:103A000008B1FDF759FA00BF1E48E063846300BFA8
:103A1000174830381C4908604FF00060486040216A
:103A2000194881600021C1604FF48061016100216B
:103A300041618161C16101624162FEF7A1F908B192
:103A4000FDF73AFA00BF1048A063846300BF00226C
:103A500005212720FEF770FC2720FEF759FC06B051
:103A600010BD00000044004040380240000C0240FD
:103A7000886002402C0A00208C0A00200048004088
:103A800000040240EC0A00204C0B002070B50446F4
:103A90000D46164694F8420020280BD105B10EB908
:103AA000012070BD0020206332462946204604F0E4
:103AB00087FEF6E70220F4E710B504464749206880
:103AC00088422ED146480078AA2810D1454800786F
:103AD00068B9012044490860FCF7D4FD112240492F
:103AE000491C4248FFF7D2FF01203E4908703C487C
:103AF0000078AA280DD13B480078012809D13A491D
:103B00000860FCF7BFFD122235493848FFF7BEFFB9
:103B100007E0012232493548FFF7B8FF002031495C
:103B2000087054E0324801783248334A1288815490
:103B30003148008858B92F482F490988405C0F2820
:103B400005D001222A492D48FFF7A0FF43E02A486B
:103B50000088401C28490880012225492748FFF792
:103B600095FF25480088642802DD0020224908804E
:103B7000204800780F2812D11E48C07BAA280ED1F9
:103B80001D48008810280AD103F076FF012016494D
:103B9000486003F0B1FC00201749088016E0154882
:103BA00000780F2803D11348C07BAA280ED01248F2
:103BB000008810280AD1002003E000210D4A11548A
:103BC000401C1028F9DB00200B49088003E00C4959
:103BD00020688842A6D000BF10BD00000048004009
:103BE000080700204F00002028000020E4090020E2
:103BF0002600002038060020240000209C09002018
:103C00000044004070470000F7B50446154694F89C
:103C10004100202836D1019800B10DB90120FEBD28
:103C200001982062A584E58400206064212084F846
:103C300041001548A16BC8631448A16B086414487F
:103C4000A16BC8640020A16B086501AE23681A1D32
:103C500031682B46A06BFEF709F96FF04000216830
:103C6000086000BF00BF2168143151E8001F41F017
:103C700080002168143141E80002002AF3D100BF1E
:103C80000020CCE70220CAE781830008D98300081E
:103C9000598200087047704700BFFEE710B5F5482D
:103CA000007830B1012871D0022870D003286FD17C
:103CB00064E1F148C078022854D1EF4880780228A6
:103CC00050D1EE480078022837D1ED48007803281B
:103CD00014D1EC480078032810DA0120E549087077
:103CE000E8480078401CE74908700320E64908705E
:103CF0000020E3490870E149087019E0E0480078C5
:103D0000042814D1DF480078002810DD0320D949A9
:103D10000870DC480078401EDA4908700420DA494F
:103D200008700020D6490870D449087000E010BD22
:103D30000020D149C87088703EE0D0480078022841
:103D40003AD04FF42F70FEF7DBF844F28850CF4999
:103D5000096808644FF42F70FEF7D2F80220C749B3
:103D6000087029E0C448C07898B94FF42F70FEF766
:103D7000C7F89FEDC70BC84880ED060B0120BE4970
:103D8000C8704FF42F70FEF7BBF815E015E0ADE0FA
:103D90006CE1B948C07802280ED1B748807858B98C
:103DA0004FF42F70FEF7ACF89FEDBC0BBA4880EDD6
:103DB000040B0120B049887058E1B248007801280E
:103DC00004D0022808D0032812D10BE09FEDB50BD8
:103DD000B64880ED000B0BE09FEDB50BB34880EDCE
:103DE000000B05E09FEDB40BB04880ED000B00BF69
:103DF00000BFA148C07802282FD19F4880780228B0
:103E00002BD19E48007802280FD19F4800780328C4
:103E100001D1022000E00020964908700020964958
:103E2000C8708870954908705FE09748007803284B
:103E300007D14FF42F70FEF763F802208F49087006
:103E400053E09148007804284FD14FF42F70FEF7CB
:103E500057F802208949087047E08B48007803280A
:103E600008D144F638208949096808644FF42F7056
:103E7000FEF746F88048807860B94FF42F70FEF75F
:103E80003FF89FED8F0B844880ED040B01207A49A9
:103E900088702AE078488078022814D17648C07863
:103EA00088B97948007803280DD14FF42F70FEF7B8
:103EB00027F87E4890ED000B774880ED060B012037
:103EC0006D49C87011E06C48807802280DD16A48AD
:103ED000C07850B96C480078042806D14FF42F7090
:103EE000FEF70EF802206449C870BFE06248C0784F
:103EF000022821D16048807802281DD15F480078CF
:103F0000022808D100205B4908705B49C87088709E
:103F10005A49087031E05C48007803282DD144F2FA
:103F200088505A49096808644FF42F70FDF7E8FF7C
:103F300002205249087020E04F48807858B94FF469
:103F40002F70FDF7DDFF9FED600B534880ED040BF4
:103F50000120494988704848807802280DD1464898
:103F6000C07850B948480078032806D14FF42F7024
:103F7000FDF7C6FF02204049C87077E0414800784D
:103F800020B1012808D0022812D10BE09FED450B8B
:103F9000464880ED000B0BE09FED450B434880ED5C
:103FA000000B05E09FED440B404880ED000B00BF87
:103FB00000BF3148C078022826D12F4880780228D7
:103FC00022D12E480078022809D101202949087001
:103FD00000202949C87088702849087045E02A489F
:103FE0000078042841D14FF42F70FDF789FF44F683
:103FF00038202649096808644FF42F70FDF780FFC8
:1040000002201E49087030E01F480078042808D1BB
:1040100044F288501D49096808644FF42F70FDF779
:104020006FFF1548807860B94FF42F70FDF768FF77
:104030009FED270B184880ED040B01200E49887076
:1040400013E00D48807802280FD10B48C07860B982
:104050004FF42F70FDF754FF144890ED000B0E48FD
:1040600080ED060B01200449C87000BF00BF00BFEF
:104070005DE60000F0000020F2000020FA000020C1
:1040800008010020FB000020F1000020C4080020EF
:104090007B14AE47E1FA3D404807002000000000D5
:1040A00000C05440CDCCCCCCCC1C644000010020DE
:1040B000A4703D0AD70B614085EB51B81EF55B40FB
:1040C000000000000078944000000000005891407B
:1040D000000000000000894010B50E480E4908603D
:1040E0000320486000210C488160C1604FF400212A
:1040F00001614FF4401141610021017641768176E2
:10410000C17601774177FDF719FA08B1FCF7D4FEC3
:1041100010BD0000006400406808002010B50E4883
:104120000E4908600320486000210C488160C1608E
:104130004FF4002101614FF44011416100210176EB
:1041400041768176C17601774177FDF7F7F908B1BD
:10415000FCF7B2FE10BD000000680040900800208F
:1041600008B500BF002000901648006840F4001019
:10417000144908600846006800F40010009000BF71
:1041800000BF002205210C20FEF7D6F80C20FEF718
:10419000BFF8002205210E20FEF7CEF80E20FEF714
:1041A000B7F8002205211020FEF7C6F81020FEF710
:1041B000AFF8002205211120FEF7BEF81120FEF70E
:1041C000A7F808BD3038024010B50E4A00210E484D
:1041D00007F074FF0D4908600D4A00210D4807F0F3
:1041E0006DFF0D4908600D4A00210D4807F066FF7C
:1041F0000C4908600C4A00210C4807F05FFF0C498D
:10420000086010BD2CF10008517B00081C01002043
:1042100050F10008117B00082001002074F1000813
:10422000257B00082401002098F100081B7B000872
:104230002801002000B587B0142102A8FCF758F926
:1042400000BF002001903D48006840F080003B49DD
:1042500008600846006800F08000019000BF00BFC1
:1042600000BF002001900846006840F0010008608F
:104270000846006800F00100019000BF00BF00BFC9
:10428000002001900846006840F0020008600846DF
:10429000006800F00200019000BF00BF00BF0020D6
:1042A00001900846006840F0400008600846006839
:1042B00000F04000019000BF00BF00BF002001904F
:1042C0000846006840F0080008600846006800F0F2
:1042D0000800019000BF00BF4FF4A87002904FF497
:1042E000041003900120049002A91548FDF72CFE4C
:1042F0004FF4805002904FF404100390012004907A
:1043000002A91048FDF720FE002209210A20FEF72D
:1043100013F80A20FDF7FCFF002209211720FEF701
:104320000BF81720FDF7F4FF002209212820FEF7E3
:1043300003F82820FDF7ECFF07B000BD303802403D
:10434000001802400000024010B507480749086005
:104350000420486040F2712104488160FDF7F4FEBA
:1043600008B1FCF7A9FD10BD00300040B8080020DE
:1043700010B50A480A490860A7204860002108488B
:10438000816040F2E731C1600021016180218161DB
:10439000FEF730FC08B1FCF78FFD10BD0044014072
:1043A0005409002000B589B00020079008901C2116
:1043B0006846FCF79DF81948194908605320486081
:1043C00000211748816044F61F61C160002101612E
:1043D0008161FEF74CFE08B1FCF76EFD00200790EE
:1043E000089007A90E48FEF7ABFB08B1FCF764FD87
:1043F0006020009043F68C400190002002900490D1
:104400000C2269460648FEF7B0FD08B1FCF754FDE2
:104410000348FEF753FD09B000BD00000004004052
:10442000C408002000B589B00020079008901C2126
:104430006846FCF75DF81E481E4908605320486036
:1044400000211C48816044F61F61C16000210161A8
:104450008161FEF70CFE08B1FCF72EFD00200790ED
:10446000089007A91348FEF76BFB08B1FCF724FD81
:104470006020009044F2506001900020029004906F
:10448000002269460B48FEF770FD08B1FCF714FDE9
:1044900044F2F6500190042269460648FEF765FD95
:1044A00008B1FCF709FD0348FEF708FD09B000BD9F
:1044B000000C00400C09002010B50B480B490860A7
:1044C0004FF4E1304860002108488160C16001611B
:1044D0000C21416100218161C161FFF789F908B1B7
:1044E000FCF7EAFC10BD0000004400409C090020DD
:1044F00010B50B480B4908604FF4E13048600021CB
:1045000008488160C16001610C2141610021816125
:10451000C161FFF76DF908B1FCF7CEFC10BD0000DA
:1045200000480040E409002000BFFEE700BFFEE7AE
:1045300070B52DED068B05460C46B0EE408AF0EEC8
:10454000608AB0EE419AF0EE619AB0EE42AAF0EEC7
:1045500062AA012D02D0022D7CD192E0082C17D244
:10456000DFE804F08D04172A3D50647951EC180BF4
:1045700009F0D2FE9049086751EC190B09F0CCFE06
:104580008D49886351EC1A0B09F0C6FE8A49086010
:1045900075E051EC180B09F0BFFE8749486751ECF4
:1045A000190B09F0B9FE8449C86351EC1A0B09F0E4
:1045B000B3FE8149486062E051EC180B09F0ACFE93
:1045C0007D49886751EC190B09F0A6FE7A49086409
:1045D00051EC1A0B09F0A0FE774988604FE051ECCE
:1045E000180B09F099FE7449C86751EC190B09F0D2
:1045F00093FE7149486451EC1A0B09F08DFE6E4927
:10460000C8603CE051EC180B09F086FE6A49C1F81D
:10461000800051EC190B09F07FFE6749886451EC6A
:104620001A0B09F079FE6449086128E051EC180B77
:1046300009F072FE6049C1F8840051EC190B09F0D1
:104640006BFE5D49C86451EC1A0B09F065FE5A49CE
:10465000486114E0ABE051EC180B09F05DFE5649DF
:10466000C1F8880051EC190B09F056FE5249086553
:1046700051EC1A0B09F050FE4F49886100BF00BF92
:1046800095E0082C18D2DFE804F09004182C405470
:10469000687C51EC180B09F03FFE4749C1F88C00CB
:1046A00051EC190B09F038FE4349486551EC1A0BDF
:1046B00009F032FE4049C86177E051EC180B09F06F
:1046C0002BFE3D49C1F8900051EC190B09F024FE76
:1046D0003949886551EC1A0B09F01EFE364908620B
:1046E00063E051EC180B09F017FE3349C1F8940050
:1046F00051EC190B09F010FE2F49C86551EC1A0B4B
:1047000009F00AFE2C4948624FE051EC180B09F001
:1047100003FE2949C1F8980051EC190B09F0FCFD82
:104720002549086651EC1A0B09F0F6FD224988620A
:104730003BE051EC180B09F0EFFD1F49C1F89C005C
:1047400051EC190B09F0E8FD1B49486651EC1A0BB6
:1047500009F0E2FD1849C86227E051EC180B09F096
:10476000DBFD1549C1F8A00051EC190B09F0D4FD8F
:104770001149886651EC1A0B09F0CEFD0E49086309
:1047800013E051EC180B09F0C7FD0B49C1F8A40068
:1047900051EC190B09F0C0FD0749C86651EC1A0B22
:1047A00009F0BAFD0449486300BF00BF00BF00BF65
:1047B000BDEC068B70BD0000E001002070B52DED52
:1047C000068B05460C46B0EE408AF0EE608AB0EEED
:1047D000419AF0EE619AB0EE42AAF0EE62AA012D83
:1047E00002D0022D76D1A4E0082C1AD2DFE804F022
:1047F0009F041A30465C738951EC180B09F08CFD4C
:10480000A049C1F8180151EC190B09F085FD9D492B
:10481000C1F8E00051EC1A0B09F07EFD9949C1F88E
:10482000A80084E051EC180B09F076FD9549C1F819
:104830001C0151EC190B09F06FFD9249C1F8E4001D
:1048400051EC1A0B09F068FD8E49C1F8AC006EE01E
:1048500051EC180B09F060FD8A49C1F8200151ECB8
:10486000190B09F059FD8749C1F8E80051EC1A0B02
:1048700009F052FD8349C1F8B00058E051EC180B23
:1048800009F04AFD7F49C1F8240151EC190B09F0E8
:1048900043FD7C49C1F8EC0051EC1A0B09F03CFDDA
:1048A0007849C1F8B40042E051EC180B09F034FD2E
:1048B0007449C1F8280151EC190B09F02DFD71491B
:1048C000C1F8F00051EC1A0B09F026FD6D49C1F852
:1048D000B8002CE0D1E051EC180B09F01DFD69493E
:1048E000C1F82C0151EC190B09F016FD6549C1F80E
:1048F000F40051EC1A0B09F00FFD6249C1F8BC003D
:1049000015E051EC180B09F007FD5E49C1F83001C4
:1049100051EC190B09F000FD5A49C1F8F80051ECAF
:104920001A0B09F0F9FC5749C1F8C00000BF00BFDD
:10493000A3E0082C1AD2DFE804F09E041A30465C8B
:10494000728851EC180B09F0E7FC4E49C1F83401AC
:1049500051EC190B09F0E0FC4A49C1F8FC0051EC9C
:104960001A0B09F0D9FC4749C1F8C40083E051ECA7
:10497000180B09F0D1FC4349C1F8380151EC190B6F
:1049800009F0CAFC3F49C1F8000151EC1A0B09F0CB
:10499000C3FC3C49C1F8C8006DE051EC180B09F0AC
:1049A000BBFC3849C1F83C0151EC190B09F0B4FCCF
:1049B0003449C1F8040151EC1A0B09F0ADFC31493E
:1049C000C1F8CC0057E051EC180B09F0A5FC2D49BB
:1049D000C1F8400151EC190B09F09EFC2949C1F8BE
:1049E000080151EC1A0B09F097FC2649C1F8D000D8
:1049F00041E051EC180B09F08FFC2249C1F8440149
:104A000051EC190B09F088FC1E49C1F80C0151EC5E
:104A10001A0B09F081FC1B49C1F8D4002BE051ECC2
:104A2000180B09F079FC1749C1F8480151EC190B32
:104A300009F072FC1349C1F8100151EC1A0B09F08E
:104A40006BFC1049C1F8D80015E051EC180B09F0C7
:104A500063FC0C49C1F84C0151EC190B09F05CFCEA
:104A60000849C1F8140151EC1A0B09F055FC05492D
:104A7000C1F8DC0000BF00BF00BF00BFBDEC068B6B
:104A800070BD0000E001002010B51C48FCF752F991
:104A90001A481C30FCF74EF918481830FCF74AF950
:104AA00016481430FCF746F914481030FCF742F968
:104AB00012480C30FCF73EF910480830FCF73AF980
:104AC0000E48001DFCF736F90C48001FFCF732F9C0
:104AD0000A480838FCF72EF908480C38FCF72AF980
:104AE00006481038FCF726F904481438FCF722F978
:104AF00002481838FCF71EF910BD00008C55002044
:104B000010B52DED0A8BFE4890ED020ABDEEC00AED
:104B100010EE100A012802D0022851D151E0F848C5
:104B200090ED010AD0ED000A70EE608AF54890ED34
:104B30003D0AF548D0ED690A10EEA80ADFEDF30A48
:104B400020EE209AEF4890ED3E0AEF48D0ED850A1E
:104B500000EEA80A30EE098A9FEDED0AB4EEC08A95
:104B6000F1EE10FA05DD9FEDEA0AEA4880ED000A51
:104B70000FE09FEDE90AB4EEC08AF1EE10FA05D21B
:104B80009FEDE50AE34880ED000A02E0E14880ED90
:104B9000008ADC4890ED3D0ADFEDE00A00EE890A6C
:104BA00080ED3D0A90ED3E0AD748D0ED770A60EEE1
:104BB000A80A9FEDDA1A00EE810AD24880ED3E0A7B
:104BC000EEE0CF4890ED030AD0ED050A9FEDD41A30
:104BD00001EE200AD0ED010A30EEC09A19EE100A5B
:104BE0000AF0A8F941EC1C0BB0EE4C0AF0EE6C0A8E
:104BF00004F096F9B0EE40BAF0EE60BA51EC1B0B3F
:104C000009F08AFB08EE900ABF4890ED5B0AB4EE0B
:104C1000E80AF1EE10FA03D39FEDC20AB0EE409A13
:104C2000B84890ED3A0AB848D0ED070A10EE890A64
:104C3000DFEDB60A60EE209A90ED5B0AB4EEE80A6A
:104C4000F1EE10FA2BD2AF4890ED390AAE48D0ED14
:104C5000230A00EE890A30EE298A9FEDAD0AB4EEF0
:104C6000C08AF1EE10FA04DD9FEDA90AB0EE408A89
:104C70000AE09FEDA90AB4EEC08AF1EE10FA03D261
:104C80009FEDA50AB0EE408A9D4890ED000A9E482F
:104C9000D0ED930A10EE880AF0EE408A03E09FED13
:104CA000A10AF0EE408A974890ED3B0A9648D0ED75
:104CB000310A10EEA80ADFED950A20EE20AA9148ED
:104CC00090ED3C0A9048D0ED4D0A00EEA80A30EE77
:104CD0000A0AB0EE408A9FED8E0AB4EEC08AF1EE69
:104CE00010FA05DD9FED8A0A8A4880ED010A0FE07F
:104CF0009FED890AB4EEC08AF1EE10FA05D29FED5D
:104D0000860A844880ED010A02E0824880ED018A2B
:104D10007B48D0ED030A90ED041A70EEC10AB0EEA4
:104D2000600A78490C3101F12800FBF78FFF7548C4
:104D300090ED0D0A7248D0ED050A30EE200A754854
:104D400080ED020A6F4890ED390A6F48D0ED150AE0
:104D500060EE890A9FED711A00EE810A694880EDC4
:104D6000390A90ED3A0ADFED6D0A00EEA90A80EDEE
:104D70003A0A90ED3B0ADFED690A00EE8A0A80EDFF
:104D80003B0A90ED3C0A6048D0ED3F0A60EEA80A6D
:104D90009FED621A00EE810A5A4880ED3C0A00BF7E
:104DA00000BF574890ED080ABDEEC00A10EE100A89
:104DB000012802D0022857D157E0514890ED070A48
:104DC000D0ED060A30EE600AF0EE408A4D4890EDD4
:104DD000670A4D48D0ED620A10EEA80ADFED4B0AD3
:104DE00020EE200AB0EE409A464890ED680A464808
:104DF000D0ED7E0A00EEA80A30EE090AB0EE408A35
:104E00009FED430AB4EEC08AF1EE10FA05DD9FED86
:104E1000400A404880ED030A0FE09FED3F0AB4EEE0
:104E2000C08AF1EE10FA05D29FED3B0A394880EDB9
:104E3000030A02E0374880ED038A324890ED670AA2
:104E4000DFED360A00EE890A80ED670A90ED680A08
:104E50002D48D0ED700A60EEA80A9FED301A00EEE2
:104E6000810A284880ED680A0BE1254890ED090A7F
:104E7000D0ED0B0A9FED2A1A01EE200AD0ED070AA9
:104E800030EEC00AB0EE409A19EE100A0AF052F85D
:104E900041EC1C0BB0EE4C0AF0EE6C0A04F040F84A
:104EA000B0EE40BAF0EE60BA51EC1B0B09F034FAE8
:104EB00008EE900A144890ED540AB4EEE80AF1EEB8
:104EC00010FA03D39FED170AB0EE409A0D4890ED0B
:104ED000640A0D48D0ED000A10EE890ADFED0B0AD6
:104EE00020EE200AF0EE409A90ED540AB4EEE80A63
:104EF000F1EE10FA42D2034890ED630A024813E043
:104F0000FC56002058550020E00100200000C84257
:104F1000000080464C580020000080C66F12833A83
:104F200000F8FF4500000000D0ED1C0A00EE890AE1
:104F300030EE290AB0EE408A1FED0B0AB4EEC08AAB
:104F4000F1EE10FA04DD1FED0E0AB0EE408A0AE021
:104F50001FED0F0AB4EEC08AF1EE10FA03D21FED76
:104F6000120AB0EE408AFB4890ED060AFA48D0EDEE
:104F70008C0A10EE880AF0EE408A03E01FED170A53
:104F8000F0EE408AF54890ED650AF348D0ED2A0A24
:104F900010EEA80A5FED230A20EE200AB0EE40AA28
:104FA000EE4890ED660AEC48D0ED460A00EEA80AFD
:104FB00030EE0A0AB0EE408A1FED2B0AB4EEC08A2A
:104FC000F1EE10FA05DD1FED2E0AE54880ED040A2A
:104FD0000FE01FED2F0AB4EEC08AF1EE10FA05D2F1
:104FE0001FED330ADE4880ED040A02E0DC4880ED64
:104FF000048AD848D0ED090A90ED0A1A70EEC10A69
:10500000B0EE600AD5491A3101F13600FBF71EFEF9
:10501000D24890ED140ACF48D0ED0B0A30EE200AAA
:10502000CF4880ED050ACD4890ED630ACA48D0ED1F
:105030000E0A60EE890A1FED471A00EE810AC74882
:1050400080ED630A90ED640A5FED4C0A00EEA90A58
:1050500080ED640A90ED650A5FED500A00EE8A0A61
:1050600080ED650A90ED660ABB48D0ED380A60EE27
:10507000A80A1FED561A00EE810AB84880ED660AAC
:1050800000BF00BFB34890ED0E0ABDEEC00A10EE9F
:10509000100A012802D0022857D157E0AD4890ED00
:1050A0000D0AD0ED0C0A30EE600AF0EE408AAB48F3
:1050B00090ED610AA848D0ED630A10EEA80A5FEDF2
:1050C0006D0A20EE200AB0EE409AA44890ED620AE4
:1050D000A148D0ED7F0A00EEA80A30EE090AB0EE32
:1050E000408A1FED750AB4EEC08AF1EE10FA05DDB4
:1050F0001FED790A9A4880ED060A0FE01FED7A0A43
:10510000B4EEC08AF1EE10FA05D21FED7D0A944884
:1051100080ED060A02E0924880ED068A8F4890ED05
:10512000610A5FED820A00EE890A80ED610A90ED66
:10513000620A8948D0ED710A60EEA80A1FED891A4B
:1051400000EE810A854880ED620AF6E0814890ED24
:105150000F0AD0ED110A1FED8E1A01EE200AD0EDD4
:105160000D0A30EEC00AB0EE409A19EE100A09F0AE
:10517000E1FE41EC1C0BB0EE4C0AF0EE6C0A03F0C1
:10518000CFFEB0EE40BAF0EE60BA51EC1B0B09F066
:10519000C3F808EE900A704890ED550AB4EEE80A9C
:1051A000F1EE10FA03D31FEDA10AB0EE409A6B485E
:1051B00090ED5E0A6848D0ED010A10EE890A5FEDB5
:1051C000AD0A20EE200AF0EE409A90ED550AB4EEBA
:1051D000E80AF1EE10FA2DD2604890ED5D0A5E48C3
:1051E000D0ED1D0A00EE890A30EE290AB0EE408AA1
:1051F0001FEDB90AB4EEC08AF1EE10FA04DD1FED1E
:10520000BC0AB0EE408A0AE01FEDBD0AB4EEC08AC7
:10521000F1EE10FA03D21FEDC00AB0EE408A4D48FD
:1052200090ED0C0A4C48D0ED8D0A10EE880AF0EE95
:10523000408A03E01FEDC50AF0EE408A474890ED32
:105240005F0A4548D0ED2B0A10EEA80A5FEDD10A9F
:1052500020EE200AB0EE40AA404890ED600A3E4899
:10526000D0ED470A00EEA80A30EE0A0AB0EE408AF6
:105270001FEDD90AB4EEC08AF1EE10FA05DD1FED7C
:10528000DC0A374880ED070A0FE01FEDDD0AB4EEB7
:10529000C08AF1EE10FA05D21FEDE10A304880ED28
:1052A000070A02E02E4880ED078A2A48D0ED0F0A4F
:1052B00090ED101A70EEC10AB0EE600A274918315D
:1052C00001F13400FBF7C2FC244890ED130A214899
:1052D000D0ED110A30EE200A214880ED080A1F485F
:1052E00090ED5D0A1C48D0ED0F0A60EE890A1FEDB3
:1052F000F51A00EE810A194880ED5D0A90ED5E0A0C
:105300005FEDFA0A00EEA90A80ED5E0A90ED5F0AF1
:10531000DFED140A00EE8A0A80ED5F0A90ED600A64
:105320000D48D0ED390A60EEA80A9FED0E1A00EE86
:10533000810A0A4880ED600A00BF00BF054890ED71
:10534000140ABDEEC00A10EE100A01280CD0022883
:1053500061D161E0FC560020E0010020585500209A
:105360004C5800206F12833AFE4890ED130AD0ED9E
:10537000120A30EE600AF0EE408AFB4890ED5B0ABC
:10538000FA48D0ED640A10EEA80ADFEDF90A20EE23
:10539000200AB0EE409AF44890ED5C0AF348D0ED54
:1053A000800A00EEA80A30EE090AB0EE408A9FEDAE
:1053B000F10AB4EEC08AF1EE10FA05DD9FEDED0AB8
:1053C000ED4880ED090A0FE09FEDEC0AB4EEC08ACB
:1053D000F1EE10FA05D29FEDE90AE74880ED090ADF
:1053E00002E0E54880ED098ADF4890ED5B0A5FED59
:1053F000230A00EE890A80ED5B0A90ED5C0ADB4827
:10540000D0ED720A60EEA80A1FED2A1A00EE810A9A
:10541000D54880ED5C0AF6E0D24890ED150AD0ED53
:10542000170A9FEDD71A01EE200AD0ED130A30EECD
:10543000C00AB0EE409A19EE100A09F07BFD41EC6B
:105440001C0BB0EE4C0AF0EE6C0A03F069FDB0EEF6
:1054500040BAF0EE60BA51EC1B0B08F05DFF08EEAD
:10546000900AC24890ED560AB4EEE80AF1EE10FA3E
:1054700003D39FEDC40AB0EE409ABB4890ED580AA2
:10548000BA48D0ED020A10EE890ADFEDB90A20EE23
:10549000200AF0EE409A90ED560AB4EEE80AF1EEDA
:1054A00010FA2DD2B04890ED570AB048D0ED1E0A40
:1054B00000EE890A30EE290AB0EE408A9FEDAD0A6F
:1054C000B4EEC08AF1EE10FA04DD9FEDAA0AB0EE48
:1054D000408A0AE09FEDA90AB4EEC08AF1EE10FA04
:1054E00003D29FEDA60AB0EE408A9E4890ED120AC4
:1054F0009E48D0ED8E0A10EE880AF0EE408A03E056
:105500009FEDA00AF0EE408A974890ED590A97481F
:10551000D0ED2C0A10EEA80ADFED950A20EE200A45
:10552000B0EE40AA904890ED5A0A9048D0ED480A53
:1055300000EEA80A30EE0A0AB0EE408A9FED8D0A0E
:10554000B4EEC08AF1EE10FA05DD9FED8A0A8A48B2
:1055500080ED0A0A0FE09FED890AB4EEC08AF1EEF1
:1055600010FA05D29FED850A834880ED0A0A02E011
:10557000814880ED0A8A7B48D0ED150A90ED161A15
:1055800070EEC10AB0EE600A7749163101F13200BF
:10559000FBF75CFB744890ED120A7248D0ED170AD5
:1055A00030EE200A744880ED0B0A6F4890ED570AE0
:1055B0006E48D0ED100A60EE890A1FED961A00EED3
:1055C000810A694880ED570A90ED580A5FED9B0A01
:1055D00000EEA90A80ED580A90ED590A5FED9F0A86
:1055E00000EE8A0A80ED590A90ED5A0A5F48D0ED24
:1055F0003A0A60EEA80A1FEDA51A00EE810A5A4881
:1056000080ED5A0A00BF00BF564890ED1A0ABDEE61
:10561000C00A10EE100A012802D0022857D157E024
:10562000504890ED190AD0ED180A30EE600AF0EEFD
:10563000408A4D4890ED550A4C48D0ED650A10EE71
:10564000A80ADFED4B0A20EE200AB0EE409A464849
:1056500090ED560A4548D0ED810A00EEA80A30EEDA
:10566000090AB0EE408A9FED430AB4EEC08AF1EE1B
:1056700010FA05DD9FED3F0A3F4880ED0C0A0FE070
:105680009FED3E0AB4EEC08AF1EE10FA05D29FED0E
:105690003B0A394880ED0C0A02E0374880ED0C8A5D
:1056A000314890ED550A5FEDD10A00EE890A80ED90
:1056B000550A90ED560A2D48D0ED730A60EEA80AFF
:1056C0001FEDD81A00EE810A274880ED560A09E13D
:1056D000244890ED1B0AD0ED1D0A9FED291A01EE1A
:1056E000200AD0ED190A30EEC00AB0EE409A19EE49
:1056F000100A09F01FFC41EC1C0BB0EE4C0AF0EE56
:105700006C0A03F00DFCB0EE40BAF0EE60BA51EC5A
:105710001B0B08F001FE08EE900A144890ED570AA2
:10572000B4EEE80AF1EE10FA03D39FED160AB0EEDC
:10573000409A0D4890ED520A0C48D0ED030A10EE45
:10574000890ADFED0B0A20EE200AF0EE409A90ED78
:10575000570AB4EEE80AF1EE10FA40D2024890ED92
:10576000510A11E0FC56002058550020E0010020AD
:105770000000C842000080464C580020000080C64F
:1057800000F8FF4500000000FE48D0ED1F0A00EEC3
:10579000890A30EE290AB0EE408A1FED0A0AB4EEFB
:1057A000C08AF1EE10FA04DD1FED0E0AB0EE408A59
:1057B0000AE01FED0E0AB4EEC08AF1EE10FA03D231
:1057C0001FED120AB0EE408AEF4890ED180AED483E
:1057D000D0ED8F0A10EE880AF0EE408A03E01FED4C
:1057E000170AF0EE408AE94890ED530AE548D0EDFB
:1057F0002D0A10EEA80A5FED220A20EE200AB0EE74
:1058000040AAE24890ED540ADE48D0ED490A00EE85
:10581000A80A30EE0A0AB0EE408A1FED2A0AB4EE5A
:10582000C08AF1EE10FA05DD1FED2E0AD84880ED92
:105830000D0A0FE01FED2F0AB4EEC08AF1EE10FA48
:1058400005D21FED320AD24880ED0D0A02E0D048A1
:1058500080ED0D8ACC48D0ED1B0A90ED1C1A70EE3D
:10586000C10AB0EE600AC949143101F13000FBF7FA
:10587000EDF9C64890ED110AC348D0ED1D0A30EE8F
:10588000200AC34880ED0E0AC04890ED510ABD4879
:10589000D0ED110A60EE890A9FEDBE1A00EE810A72
:1058A000BA4880ED510A90ED520ADFEDBA0A00EED7
:1058B000A90A80ED520A90ED530ADFEDB60A00EE18
:1058C0008A0A80ED530A90ED540AAE48D0ED3B0AA7
:1058D00060EEA80A9FEDAF1A00EE810AAB4880ED9A
:1058E000540A00BF00BFA84890ED200ABDEEC00AD0
:1058F00010EE100A012802D0022857D157E0A24822
:1059000090ED1F0AD0ED1E0A30EE600AF0EE408ADC
:105910009E4890ED4F0A9B48D0ED660A10EEA80A0B
:105920005FED6D0A20EE200AB0EE409A974890EDA8
:10593000500A9448D0ED820A00EEA80A30EE090A17
:10594000B0EE408A1FED750AB4EEC08AF1EE10FA8F
:1059500005DD1FED780A8E4880ED0F0A0FE01FED80
:10596000790AB4EEC08AF1EE10FA05D21FED7D0A75
:10597000874880ED0F0A02E0854880ED0F8A834852
:1059800090ED4F0ADFED830A00EE890A80ED4F0AA1
:1059900090ED500A7B48D0ED740A60EEA80A9FEDA6
:1059A0007D1A00EE810A794880ED500A01E17648BF
:1059B00090ED210AD0ED230A1FED8F1A01EE200A87
:1059C000D0ED1F0A30EEC00AB0EE409A19EE100A70
:1059D00009F0B0FA41EC1C0BB0EE4C0AF0EE6C0A88
:1059E00003F09EFAB0EE40BAF0EE60BA51EC1B0B39
:1059F00008F092FC08EE900A624890ED580AB4EE66
:105A0000E80AF1EE10FA03D31FEDA20AB0EE409AB5
:105A10005E4890ED4C0A5B48D0ED040A10EE890A0E
:105A20005FEDAD0A20EE200AF0EE409A90ED580AA4
:105A3000B4EEE80AF1EE10FA2DD2544890ED4B0A7C
:105A40005048D0ED200A00EE890A30EE290AB0EE67
:105A5000408A1FEDB80AB4EEC08AF1EE10FA04DDF8
:105A60001FEDBC0AB0EE408A0AE01FEDBC0AB4EE9E
:105A7000C08AF1EE10FA03D21FEDC00AB0EE408AE0
:105A8000414890ED1E0A3F48D0ED900A10EE880A7A
:105A9000F0EE408A03E01FEDC50AF0EE408A3B4875
:105AA00090ED4D0A3748D0ED2E0A10EEA80A5FEDB2
:105AB000D00A20EE200AB0EE40AA344890ED4E0AFB
:105AC0003048D0ED4A0A00EEA80A30EE0A0AB0EEDD
:105AD000408A1FEDD80AB4EEC08AF1EE10FA05DD57
